{
  "_format": "hh-sol-artifact-1",
  "contractName": "Token",
  "sourceName": "contracts/Token.sol",
  "abi": [
    {
      "inputs": [],
      "stateMutability": "nonpayable",
      "type": "constructor"
    },
    {
      "anonymous": false,
      "inputs": [
        {
          "indexed": true,
          "internalType": "address",
          "name": "from",
          "type": "address"
        },
        {
          "indexed": true,
          "internalType": "address",
          "name": "to",
          "type": "address"
        },
        {
          "indexed": false,
          "internalType": "uint256",
          "name": "amount",
          "type": "uint256"
        }
      ],
      "name": "Transfer",
      "type": "event"
    },
    {
      "inputs": [
        {
          "internalType": "address",
          "name": "account",
          "type": "address"
        }
      ],
      "name": "balanceOf",
      "outputs": [
        {
          "internalType": "uint256",
          "name": "",
          "type": "uint256"
        }
      ],
      "stateMutability": "view",
      "type": "function"
    },
    {
      "inputs": [],
      "name": "candidate",
      "outputs": [
        {
          "internalType": "address",
          "name": "",
          "type": "address"
        }
      ],
      "stateMutability": "view",
      "type": "function"
    },
    {
      "inputs": [],
      "name": "checkWithdrawBalance",
      "outputs": [
        {
          "internalType": "uint256",
          "name": "",
          "type": "uint256"
        }
      ],
      "stateMutability": "view",
      "type": "function"
    },
    {
      "inputs": [],
      "name": "decimals",
      "outputs": [
        {
          "internalType": "uint256",
          "name": "",
          "type": "uint256"
        }
      ],
      "stateMutability": "pure",
      "type": "function"
    },
    {
      "inputs": [
        {
          "internalType": "uint256",
          "name": "_index",
          "type": "uint256"
        }
      ],
      "name": "getHolderByIndex",
      "outputs": [
        {
          "internalType": "address",
          "name": "",
          "type": "address"
        }
      ],
      "stateMutability": "view",
      "type": "function"
    },
    {
      "inputs": [
        {
          "internalType": "uint256",
          "name": "amount",
          "type": "uint256"
        },
        {
          "internalType": "address",
          "name": "_to",
          "type": "address"
        }
      ],
      "name": "mint",
      "outputs": [],
      "stateMutability": "nonpayable",
      "type": "function"
    },
    {
      "inputs": [],
      "name": "name",
      "outputs": [
        {
          "internalType": "string",
          "name": "",
          "type": "string"
        }
      ],
      "stateMutability": "view",
      "type": "function"
    },
    {
      "inputs": [],
      "name": "ownersCount",
      "outputs": [
        {
          "internalType": "uint256",
          "name": "",
          "type": "uint256"
        }
      ],
      "stateMutability": "view",
      "type": "function"
    },
    {
      "inputs": [
        {
          "internalType": "address",
          "name": "_new",
          "type": "address"
        }
      ],
      "name": "setCandidate",
      "outputs": [],
      "stateMutability": "nonpayable",
      "type": "function"
    },
    {
      "inputs": [],
      "name": "symbol",
      "outputs": [
        {
          "internalType": "string",
          "name": "",
          "type": "string"
        }
      ],
      "stateMutability": "view",
      "type": "function"
    },
    {
      "inputs": [],
      "name": "totalSupply",
      "outputs": [
        {
          "internalType": "uint256",
          "name": "",
          "type": "uint256"
        }
      ],
      "stateMutability": "view",
      "type": "function"
    },
    {
      "inputs": [
        {
          "internalType": "address",
          "name": "to",
          "type": "address"
        },
        {
          "internalType": "uint256",
          "name": "amount",
          "type": "uint256"
        }
      ],
      "name": "transfer",
      "outputs": [],
      "stateMutability": "nonpayable",
      "type": "function"
    },
    {
      "inputs": [
        {
          "internalType": "address",
          "name": "sender",
          "type": "address"
        },
        {
          "internalType": "address",
          "name": "recepient",
          "type": "address"
        },
        {
          "internalType": "uint256",
          "name": "amount",
          "type": "uint256"
        }
      ],
      "name": "transferFrom",
      "outputs": [],
      "stateMutability": "nonpayable",
      "type": "function"
    },
    {
      "inputs": [
        {
          "internalType": "bool",
          "name": "_choose",
          "type": "bool"
        }
      ],
      "name": "vote",
      "outputs": [],
      "stateMutability": "nonpayable",
      "type": "function"
    },
    {
      "inputs": [],
      "name": "voting",
      "outputs": [
        {
          "internalType": "bool",
          "name": "",
          "type": "bool"
        }
      ],
      "stateMutability": "view",
      "type": "function"
    },
    {
      "inputs": [
        {
          "internalType": "uint256",
          "name": "_amount",
          "type": "uint256"
        }
      ],
      "name": "withdraw",
      "outputs": [],
      "stateMutability": "nonpayable",
      "type": "function"
    },
    {
      "stateMutability": "payable",
      "type": "receive"
    }
  ],
  "bytecode": "0x60806040526040518060400160405280601481526020017f466f75727468204976617369756b20546f6b656e000000000000000000000000815250600890805190602001906200005192919062000355565b506040518060400160405280600481526020017f4956533300000000000000000000000000000000000000000000000000000000815250600990805190602001906200009f92919062000355565b50348015620000ad57600080fd5b5060018060003373ffffffffffffffffffffffffffffffffffffffff1673ffffffffffffffffffffffffffffffffffffffff16815260200190815260200160002060006101000a81548160ff021916908315150217905550600260008154809291906200011a906200043e565b91905055506200013a6801158e460913d00000336200014060201b60201c565b6200072c565b600160003373ffffffffffffffffffffffffffffffffffffffff1673ffffffffffffffffffffffffffffffffffffffff16815260200190815260200160002060009054906101000a900460ff16620001cf576040517f08c379a0000000000000000000000000000000000000000000000000000000008152600401620001c690620004ec565b60405180910390fd5b600373__$d63b1d3c5d9b60c92d6baf33b2a688236c$__63bc2b405c90918385600373__$d63b1d3c5d9b60c92d6baf33b2a688236c$__63732a2ccf9091886040518363ffffffff1660e01b81526004016200022d9291906200055a565b602060405180830381865af41580156200024b573d6000803e3d6000fd5b505050506040513d601f19601f82011682018060405250810190620002719190620005bd565b6200027d9190620005ef565b6040518463ffffffff1660e01b81526004016200029d939291906200065d565b60006040518083038186803b158015620002b657600080fd5b505af4158015620002cb573d6000803e3d6000fd5b5050505081600080828254620002e29190620005ef565b925050819055508073ffffffffffffffffffffffffffffffffffffffff16600073ffffffffffffffffffffffffffffffffffffffff167fddf252ad1be2c89b69c2b068fc378daa952ba7f163c4a11628f55a4df523b3ef84604051620003499190620006ab565b60405180910390a35050565b8280546200036390620006f7565b90600052602060002090601f016020900481019282620003875760008555620003d3565b82601f10620003a257805160ff1916838001178555620003d3565b82800160010185558215620003d3579182015b82811115620003d2578251825591602001919060010190620003b5565b5b509050620003e29190620003e6565b5090565b5b8082111562000401576000816000905550600101620003e7565b5090565b7f4e487b7100000000000000000000000000000000000000000000000000000000600052601160045260246000fd5b6000819050919050565b60006200044b8262000434565b91507fffffffffffffffffffffffffffffffffffffffffffffffffffffffffffffffff820362000480576200047f62000405565b5b600182019050919050565b600082825260208201905092915050565b7f4e6f7420616e64206f776e657200000000000000000000000000000000000000600082015250565b6000620004d4600d836200048b565b9150620004e1826200049c565b602082019050919050565b600060208201905081810360008301526200050781620004c5565b9050919050565b8082525050565b600073ffffffffffffffffffffffffffffffffffffffff82169050919050565b6000620005428262000515565b9050919050565b620005548162000535565b82525050565b60006040820190506200057160008301856200050e565b62000580602083018462000549565b9392505050565b600080fd5b620005978162000434565b8114620005a357600080fd5b50565b600081519050620005b7816200058c565b92915050565b600060208284031215620005d657620005d562000587565b5b6000620005e684828501620005a6565b91505092915050565b6000620005fc8262000434565b9150620006098362000434565b9250827fffffffffffffffffffffffffffffffffffffffffffffffffffffffffffffffff0382111562000641576200064062000405565b5b828201905092915050565b620006578162000434565b82525050565b60006060820190506200067460008301866200050e565b62000683602083018562000549565b6200069260408301846200064c565b949350505050565b620006a58162000434565b82525050565b6000602082019050620006c260008301846200069a565b92915050565b7f4e487b7100000000000000000000000000000000000000000000000000000000600052602260045260246000fd5b600060028204905060018216806200071057607f821691505b602082108103620007265762000725620006c8565b5b50919050565b611f53806200073c6000396000f3fe6080604052600436106100f75760003560e01c806370a082311161008a578063a9059cbb11610059578063a9059cbb14610518578063b948854614610541578063cb8106f41461056c578063fce1ccca146105a957610307565b806370a082311461045c57806394bf804d1461049957806395d89b41146104c25780639eda1ca0146104ed57610307565b80632e1a7d4d116100c65780632e1a7d4d146103b4578063313ce567146103dd5780634b9f5c98146104085780636c8381f81461043157610307565b806306fdde031461030c57806307880b7f1461033757806318160ddd1461036057806323b872dd1461038b57610307565b3661030757600034905060005b600373__$d63b1d3c5d9b60c92d6baf33b2a688236c$__63deb3d89690916040518263ffffffff1660e01b815260040161013e9190611616565b602060405180830381865af415801561015b573d6000803e3d6000fd5b505050506040513d601f19601f8201168201806040525081019061017f919061166c565b811015610305576000600373__$d63b1d3c5d9b60c92d6baf33b2a688236c$__63d1aa9e7e9091846040518363ffffffff1660e01b81526004016101c49291906116a8565b602060405180830381865af41580156101e1573d6000803e3d6000fd5b505050506040513d601f19601f82011682018060405250810190610205919061172f565b9050600054600373__$d63b1d3c5d9b60c92d6baf33b2a688236c$__63732a2ccf9091846040518363ffffffff1660e01b815260040161024692919061176b565b602060405180830381865af4158015610263573d6000803e3d6000fd5b505050506040513d601f19601f82011682018060405250810190610287919061166c565b8461029291906117c3565b61029c919061184c565b600760008373ffffffffffffffffffffffffffffffffffffffff1673ffffffffffffffffffffffffffffffffffffffff16815260200190815260200160002060008282546102ea919061187d565b925050819055505080806102fd906118d3565b915050610104565b005b600080fd5b34801561031857600080fd5b506103216105d4565b60405161032e91906119b4565b60405180910390f35b34801561034357600080fd5b5061035e600480360381019061035991906119eb565b610666565b005b34801561036c57600080fd5b506103756107a7565b6040516103829190611a27565b60405180910390f35b34801561039757600080fd5b506103b260048036038101906103ad9190611a57565b6107b0565b005b3480156103c057600080fd5b506103db60048036038101906103d69190611aaa565b610a53565b005b3480156103e957600080fd5b506103f2610ccf565b6040516103ff9190611a27565b60405180910390f35b34801561041457600080fd5b5061042f600480360381019061042a9190611b0f565b610cd8565b005b34801561043d57600080fd5b50610446610f46565b6040516104539190611b4b565b60405180910390f35b34801561046857600080fd5b50610483600480360381019061047e91906119eb565b610f6c565b6040516104909190611a27565b60405180910390f35b3480156104a557600080fd5b506104c060048036038101906104bb9190611b66565b610ff2565b005b3480156104ce57600080fd5b506104d76111f5565b6040516104e491906119b4565b60405180910390f35b3480156104f957600080fd5b50610502611287565b60405161050f9190611a27565b60405180910390f35b34801561052457600080fd5b5061053f600480360381019061053a9190611ba6565b6112ce565b005b34801561054d57600080fd5b50610556611570565b6040516105639190611a27565b60405180910390f35b34801561057857600080fd5b50610593600480360381019061058e9190611aaa565b611576565b6040516105a09190611b4b565b60405180910390f35b3480156105b557600080fd5b506105be6115fc565b6040516105cb9190611bf5565b60405180910390f35b6060600880546105e390611c3f565b80601f016020809104026020016040519081016040528092919081815260200182805461060f90611c3f565b801561065c5780601f106106315761010080835404028352916020019161065c565b820191906000526020600020905b81548152906001019060200180831161063f57829003601f168201915b5050505050905090565b600160003373ffffffffffffffffffffffffffffffffffffffff1673ffffffffffffffffffffffffffffffffffffffff16815260200190815260200160002060009054906101000a900460ff166106f2576040517f08c379a00000000000000000000000000000000000000000000000000000000081526004016106e990611cbc565b60405180910390fd5b60001515600a60149054906101000a900460ff16151514610748576040517f08c379a000000000000000000000000000000000000000000000000000000000815260040161073f90611d28565b60405180910390fd5b6001600a60146101000a81548160ff02191690831515021790555080600a60006101000a81548173ffffffffffffffffffffffffffffffffffffffff021916908373ffffffffffffffffffffffffffffffffffffffff16021790555050565b60008054905090565b8281806107bc83610f6c565b10156107fd576040517f08c379a00000000000000000000000000000000000000000000000000000000081526004016107f490611d94565b60405180910390fd5b600373__$d63b1d3c5d9b60c92d6baf33b2a688236c$__63bc2b405c90918786600373__$d63b1d3c5d9b60c92d6baf33b2a688236c$__63732a2ccf90918c6040518363ffffffff1660e01b815260040161085992919061176b565b602060405180830381865af4158015610876573d6000803e3d6000fd5b505050506040513d601f19601f8201168201806040525081019061089a919061166c565b6108a49190611db4565b6040518463ffffffff1660e01b81526004016108c293929190611de8565b60006040518083038186803b1580156108da57600080fd5b505af41580156108ee573d6000803e3d6000fd5b50505050600373__$d63b1d3c5d9b60c92d6baf33b2a688236c$__63bc2b405c90918686600373__$d63b1d3c5d9b60c92d6baf33b2a688236c$__63732a2ccf90918b6040518363ffffffff1660e01b815260040161094e92919061176b565b602060405180830381865af415801561096b573d6000803e3d6000fd5b505050506040513d601f19601f8201168201806040525081019061098f919061166c565b610999919061187d565b6040518463ffffffff1660e01b81526004016109b793929190611de8565b60006040518083038186803b1580156109cf57600080fd5b505af41580156109e3573d6000803e3d6000fd5b505050508373ffffffffffffffffffffffffffffffffffffffff168573ffffffffffffffffffffffffffffffffffffffff167fddf252ad1be2c89b69c2b068fc378daa952ba7f163c4a11628f55a4df523b3ef85604051610a449190611a27565b60405180910390a35050505050565b80600760003373ffffffffffffffffffffffffffffffffffffffff1673ffffffffffffffffffffffffffffffffffffffff168152602001908152602001600020541015610ad5576040517f08c379a0000000000000000000000000000000000000000000000000000000008152600401610acc90611e91565b60405180910390fd5b80600760003373ffffffffffffffffffffffffffffffffffffffff1673ffffffffffffffffffffffffffffffffffffffff1681526020019081526020016000206000828254610b249190611db4565b92505081905550600373__$d63b1d3c5d9b60c92d6baf33b2a688236c$__63bc2b405c90913384600373__$d63b1d3c5d9b60c92d6baf33b2a688236c$__63732a2ccf9091336040518363ffffffff1660e01b8152600401610b8792919061176b565b602060405180830381865af4158015610ba4573d6000803e3d6000fd5b505050506040513d601f19601f82011682018060405250810190610bc8919061166c565b610bd2919061187d565b6040518463ffffffff1660e01b8152600401610bf093929190611de8565b60006040518083038186803b158015610c0857600080fd5b505af4158015610c1c573d6000803e3d6000fd5b505050503373ffffffffffffffffffffffffffffffffffffffff166108fc829081150290604051600060405180830381858888f19350505050158015610c66573d6000803e3d6000fd5b503373ffffffffffffffffffffffffffffffffffffffff163073ffffffffffffffffffffffffffffffffffffffff167fddf252ad1be2c89b69c2b068fc378daa952ba7f163c4a11628f55a4df523b3ef83604051610cc49190611a27565b60405180910390a350565b60006012905090565b600160003373ffffffffffffffffffffffffffffffffffffffff1673ffffffffffffffffffffffffffffffffffffffff16815260200190815260200160002060009054906101000a900460ff16610d64576040517f08c379a0000000000000000000000000000000000000000000000000000000008152600401610d5b90611cbc565b60405180910390fd5b60011515600a60149054906101000a900460ff16151514610dba576040517f08c379a0000000000000000000000000000000000000000000000000000000008152600401610db190611efd565b60405180910390fd5b6001151581151503610de357600b6000815480929190610dd9906118d3565b9190505550610dfc565b600c6000815480929190610df6906118d3565b91905055505b60028054610e0a919061184c565b600b541180610e27575060028054610e22919061184c565b600c54115b15610f435760028054610e3a919061184c565b600b541115610ed5576001806000600a60009054906101000a900473ffffffffffffffffffffffffffffffffffffffff1673ffffffffffffffffffffffffffffffffffffffff1673ffffffffffffffffffffffffffffffffffffffff16815260200190815260200160002060006101000a81548160ff02191690831515021790555060026000815480929190610ecf906118d3565b91905055505b6000600a60006101000a81548173ffffffffffffffffffffffffffffffffffffffff021916908373ffffffffffffffffffffffffffffffffffffffff1602179055506000600a60146101000a81548160ff0219169083151502179055506000600b819055506000600c819055505b50565b600a60009054906101000a900473ffffffffffffffffffffffffffffffffffffffff1681565b6000600373__$d63b1d3c5d9b60c92d6baf33b2a688236c$__63732a2ccf9091846040518363ffffffff1660e01b8152600401610faa92919061176b565b602060405180830381865af4158015610fc7573d6000803e3d6000fd5b505050506040513d601f19601f82011682018060405250810190610feb919061166c565b9050919050565b600160003373ffffffffffffffffffffffffffffffffffffffff1673ffffffffffffffffffffffffffffffffffffffff16815260200190815260200160002060009054906101000a900460ff1661107e576040517f08c379a000000000000000000000000000000000000000000000000000000000815260040161107590611cbc565b60405180910390fd5b600373__$d63b1d3c5d9b60c92d6baf33b2a688236c$__63bc2b405c90918385600373__$d63b1d3c5d9b60c92d6baf33b2a688236c$__63732a2ccf9091886040518363ffffffff1660e01b81526004016110da92919061176b565b602060405180830381865af41580156110f7573d6000803e3d6000fd5b505050506040513d601f19601f8201168201806040525081019061111b919061166c565b611125919061187d565b6040518463ffffffff1660e01b815260040161114393929190611de8565b60006040518083038186803b15801561115b57600080fd5b505af415801561116f573d6000803e3d6000fd5b5050505081600080828254611184919061187d565b925050819055508073ffffffffffffffffffffffffffffffffffffffff16600073ffffffffffffffffffffffffffffffffffffffff167fddf252ad1be2c89b69c2b068fc378daa952ba7f163c4a11628f55a4df523b3ef846040516111e99190611a27565b60405180910390a35050565b60606009805461120490611c3f565b80601f016020809104026020016040519081016040528092919081815260200182805461123090611c3f565b801561127d5780601f106112525761010080835404028352916020019161127d565b820191906000526020600020905b81548152906001019060200180831161126057829003601f168201915b5050505050905090565b6000600760003373ffffffffffffffffffffffffffffffffffffffff1673ffffffffffffffffffffffffffffffffffffffff16815260200190815260200160002054905090565b3381806112da83610f6c565b101561131b576040517f08c379a000000000000000000000000000000000000000000000000000000000815260040161131290611d94565b60405180910390fd5b600373__$d63b1d3c5d9b60c92d6baf33b2a688236c$__63bc2b405c90913386600373__$d63b1d3c5d9b60c92d6baf33b2a688236c$__63732a2ccf9091336040518363ffffffff1660e01b815260040161137792919061176b565b602060405180830381865af4158015611394573d6000803e3d6000fd5b505050506040513d601f19601f820116820180604052508101906113b8919061166c565b6113c29190611db4565b6040518463ffffffff1660e01b81526004016113e093929190611de8565b60006040518083038186803b1580156113f857600080fd5b505af415801561140c573d6000803e3d6000fd5b50505050600373__$d63b1d3c5d9b60c92d6baf33b2a688236c$__63bc2b405c90918686600373__$d63b1d3c5d9b60c92d6baf33b2a688236c$__63732a2ccf90918b6040518363ffffffff1660e01b815260040161146c92919061176b565b602060405180830381865af4158015611489573d6000803e3d6000fd5b505050506040513d601f19601f820116820180604052508101906114ad919061166c565b6114b7919061187d565b6040518463ffffffff1660e01b81526004016114d593929190611de8565b60006040518083038186803b1580156114ed57600080fd5b505af4158015611501573d6000803e3d6000fd5b505050508373ffffffffffffffffffffffffffffffffffffffff163373ffffffffffffffffffffffffffffffffffffffff167fddf252ad1be2c89b69c2b068fc378daa952ba7f163c4a11628f55a4df523b3ef856040516115629190611a27565b60405180910390a350505050565b60025481565b6000600373__$d63b1d3c5d9b60c92d6baf33b2a688236c$__63d1aa9e7e9091846040518363ffffffff1660e01b81526004016115b49291906116a8565b602060405180830381865af41580156115d1573d6000803e3d6000fd5b505050506040513d601f19601f820116820180604052508101906115f5919061172f565b9050919050565b600a60149054906101000a900460ff1681565b8082525050565b600060208201905061162b600083018461160f565b92915050565b600080fd5b6000819050919050565b61164981611636565b811461165457600080fd5b50565b60008151905061166681611640565b92915050565b60006020828403121561168257611681611631565b5b600061169084828501611657565b91505092915050565b6116a281611636565b82525050565b60006040820190506116bd600083018561160f565b6116ca6020830184611699565b9392505050565b600073ffffffffffffffffffffffffffffffffffffffff82169050919050565b60006116fc826116d1565b9050919050565b61170c816116f1565b811461171757600080fd5b50565b60008151905061172981611703565b92915050565b60006020828403121561174557611744611631565b5b60006117538482850161171a565b91505092915050565b611765816116f1565b82525050565b6000604082019050611780600083018561160f565b61178d602083018461175c565b9392505050565b7f4e487b7100000000000000000000000000000000000000000000000000000000600052601160045260246000fd5b60006117ce82611636565b91506117d983611636565b9250817fffffffffffffffffffffffffffffffffffffffffffffffffffffffffffffffff048311821515161561181257611811611794565b5b828202905092915050565b7f4e487b7100000000000000000000000000000000000000000000000000000000600052601260045260246000fd5b600061185782611636565b915061186283611636565b9250826118725761187161181d565b5b828204905092915050565b600061188882611636565b915061189383611636565b9250827fffffffffffffffffffffffffffffffffffffffffffffffffffffffffffffffff038211156118c8576118c7611794565b5b828201905092915050565b60006118de82611636565b91507fffffffffffffffffffffffffffffffffffffffffffffffffffffffffffffffff82036119105761190f611794565b5b600182019050919050565b600081519050919050565b600082825260208201905092915050565b60005b8381101561195557808201518184015260208101905061193a565b83811115611964576000848401525b50505050565b6000601f19601f8301169050919050565b60006119868261191b565b6119908185611926565b93506119a0818560208601611937565b6119a98161196a565b840191505092915050565b600060208201905081810360008301526119ce818461197b565b905092915050565b6000813590506119e581611703565b92915050565b600060208284031215611a0157611a00611631565b5b6000611a0f848285016119d6565b91505092915050565b611a2181611636565b82525050565b6000602082019050611a3c6000830184611a18565b92915050565b600081359050611a5181611640565b92915050565b600080600060608486031215611a7057611a6f611631565b5b6000611a7e868287016119d6565b9350506020611a8f868287016119d6565b9250506040611aa086828701611a42565b9150509250925092565b600060208284031215611ac057611abf611631565b5b6000611ace84828501611a42565b91505092915050565b60008115159050919050565b611aec81611ad7565b8114611af757600080fd5b50565b600081359050611b0981611ae3565b92915050565b600060208284031215611b2557611b24611631565b5b6000611b3384828501611afa565b91505092915050565b611b45816116f1565b82525050565b6000602082019050611b606000830184611b3c565b92915050565b60008060408385031215611b7d57611b7c611631565b5b6000611b8b85828601611a42565b9250506020611b9c858286016119d6565b9150509250929050565b60008060408385031215611bbd57611bbc611631565b5b6000611bcb858286016119d6565b9250506020611bdc85828601611a42565b9150509250929050565b611bef81611ad7565b82525050565b6000602082019050611c0a6000830184611be6565b92915050565b7f4e487b7100000000000000000000000000000000000000000000000000000000600052602260045260246000fd5b60006002820490506001821680611c5757607f821691505b602082108103611c6a57611c69611c10565b5b50919050565b7f4e6f7420616e64206f776e657200000000000000000000000000000000000000600082015250565b6000611ca6600d83611926565b9150611cb182611c70565b602082019050919050565b60006020820190508181036000830152611cd581611c99565b9050919050565b7f54686520766f74696e6720697320737461727465640000000000000000000000600082015250565b6000611d12601583611926565b9150611d1d82611cdc565b602082019050919050565b60006020820190508181036000830152611d4181611d05565b9050919050565b7f4e6f7420656e6f75676820746f6b656e73000000000000000000000000000000600082015250565b6000611d7e601183611926565b9150611d8982611d48565b602082019050919050565b60006020820190508181036000830152611dad81611d71565b9050919050565b6000611dbf82611636565b9150611dca83611636565b925082821015611ddd57611ddc611794565b5b828203905092915050565b6000606082019050611dfd600083018661160f565b611e0a602083018561175c565b611e176040830184611699565b949350505050565b7f4e6f7420656e6f75676820746f6b656e73206f6e20776974686472617720626160008201527f6c616e6365000000000000000000000000000000000000000000000000000000602082015250565b6000611e7b602583611926565b9150611e8682611e1f565b604082019050919050565b60006020820190508181036000830152611eaa81611e6e565b9050919050565b7f566f74696e672069736e27742073746172746564000000000000000000000000600082015250565b6000611ee7601483611926565b9150611ef282611eb1565b602082019050919050565b60006020820190508181036000830152611f1681611eda565b905091905056fea26469706673582212200e269b8f3929c612d87bfc5b39bb689abbe4080eee0d1b2c81d26b79c28a204164736f6c634300080d0033",
  "linkReferences": {
    "contracts/itMaps.sol": {
      "IterableMapping": [
        {
          "length": 20,
          "start": 467
        },
        {
          "length": 20,
          "start": 499
        },
        {
          "length": 20,
          "start": 2116
        },
        {
          "length": 20,
          "start": 2248
        },
        {
          "length": 20,
          "start": 2378
        },
        {
          "length": 20,
          "start": 3901
        },
        {
          "length": 20,
          "start": 3933
        },
        {
          "length": 20,
          "start": 4146
        },
        {
          "length": 20,
          "start": 4178
        },
        {
          "length": 20,
          "start": 4715
        },
        {
          "length": 20,
          "start": 4747
        },
        {
          "length": 20,
          "start": 5806
        },
        {
          "length": 20,
          "start": 6078
        },
        {
          "length": 20,
          "start": 6110
        },
        {
          "length": 20,
          "start": 6747
        },
        {
          "length": 20,
          "start": 6779
        },
        {
          "length": 20,
          "start": 6992
        },
        {
          "length": 20,
          "start": 7024
        },
        {
          "length": 20,
          "start": 7352
        }
      ]
    }
  },
  "deployedLinkReferences": {
    "contracts/itMaps.sol": {
      "IterableMapping": [
        {
          "length": 20,
          "start": 264
        },
        {
          "length": 20,
          "start": 396
        },
        {
          "length": 20,
          "start": 526
        },
        {
          "length": 20,
          "start": 2049
        },
        {
          "length": 20,
          "start": 2081
        },
        {
          "length": 20,
          "start": 2294
        },
        {
          "length": 20,
          "start": 2326
        },
        {
          "length": 20,
          "start": 2863
        },
        {
          "length": 20,
          "start": 2895
        },
        {
          "length": 20,
          "start": 3954
        },
        {
          "length": 20,
          "start": 4226
        },
        {
          "length": 20,
          "start": 4258
        },
        {
          "length": 20,
          "start": 4895
        },
        {
          "length": 20,
          "start": 4927
        },
        {
          "length": 20,
          "start": 5140
        },
        {
          "length": 20,
          "start": 5172
        },
        {
          "length": 20,
          "start": 5500
        }
      ]
    }
  }
}