{
  "_format": "hh-sol-artifact-1",
  "contractName": "Token",
  "sourceName": "contracts/Token.sol",
  "abi": [
    {
      "inputs": [],
      "stateMutability": "nonpayable",
      "type": "constructor"
    },
    {
      "anonymous": false,
      "inputs": [
        {
          "indexed": true,
          "internalType": "address",
          "name": "from",
          "type": "address"
        },
        {
          "indexed": true,
          "internalType": "address",
          "name": "to",
          "type": "address"
        },
        {
          "indexed": false,
          "internalType": "uint256",
          "name": "amount",
          "type": "uint256"
        }
      ],
      "name": "Transfer",
      "type": "event"
    },
    {
      "inputs": [
        {
          "internalType": "address",
          "name": "_owner",
          "type": "address"
        },
        {
          "internalType": "address",
          "name": "_spender",
          "type": "address"
        }
      ],
      "name": "allowance",
      "outputs": [
        {
          "internalType": "uint256",
          "name": "",
          "type": "uint256"
        }
      ],
      "stateMutability": "view",
      "type": "function"
    },
    {
      "inputs": [
        {
          "internalType": "address",
          "name": "_spender",
          "type": "address"
        },
        {
          "internalType": "uint256",
          "name": "_amount",
          "type": "uint256"
        }
      ],
      "name": "approve",
      "outputs": [],
      "stateMutability": "nonpayable",
      "type": "function"
    },
    {
      "inputs": [
        {
          "internalType": "address",
          "name": "account",
          "type": "address"
        }
      ],
      "name": "balanceOf",
      "outputs": [
        {
          "internalType": "uint256",
          "name": "",
          "type": "uint256"
        }
      ],
      "stateMutability": "view",
      "type": "function"
    },
    {
      "inputs": [],
      "name": "candidate",
      "outputs": [
        {
          "internalType": "address",
          "name": "",
          "type": "address"
        }
      ],
      "stateMutability": "view",
      "type": "function"
    },
    {
      "inputs": [],
      "name": "checkWithdrawBalance",
      "outputs": [
        {
          "internalType": "uint256",
          "name": "",
          "type": "uint256"
        }
      ],
      "stateMutability": "view",
      "type": "function"
    },
    {
      "inputs": [],
      "name": "decimals",
      "outputs": [
        {
          "internalType": "uint256",
          "name": "",
          "type": "uint256"
        }
      ],
      "stateMutability": "view",
      "type": "function"
    },
    {
      "inputs": [
        {
          "internalType": "uint256",
          "name": "_index",
          "type": "uint256"
        }
      ],
      "name": "getHolderByIndex",
      "outputs": [
        {
          "internalType": "address",
          "name": "",
          "type": "address"
        }
      ],
      "stateMutability": "view",
      "type": "function"
    },
    {
      "inputs": [],
      "name": "holdersCount",
      "outputs": [
        {
          "internalType": "uint256",
          "name": "",
          "type": "uint256"
        }
      ],
      "stateMutability": "view",
      "type": "function"
    },
    {
      "inputs": [
        {
          "internalType": "uint256",
          "name": "tokenAmount",
          "type": "uint256"
        },
        {
          "internalType": "address",
          "name": "_to",
          "type": "address"
        }
      ],
      "name": "mint",
      "outputs": [],
      "stateMutability": "nonpayable",
      "type": "function"
    },
    {
      "inputs": [],
      "name": "name",
      "outputs": [
        {
          "internalType": "string",
          "name": "",
          "type": "string"
        }
      ],
      "stateMutability": "view",
      "type": "function"
    },
    {
      "inputs": [],
      "name": "ownersCount",
      "outputs": [
        {
          "internalType": "uint256",
          "name": "",
          "type": "uint256"
        }
      ],
      "stateMutability": "view",
      "type": "function"
    },
    {
      "inputs": [
        {
          "internalType": "address",
          "name": "_new",
          "type": "address"
        }
      ],
      "name": "setCandidate",
      "outputs": [],
      "stateMutability": "nonpayable",
      "type": "function"
    },
    {
      "inputs": [],
      "name": "symbol",
      "outputs": [
        {
          "internalType": "string",
          "name": "",
          "type": "string"
        }
      ],
      "stateMutability": "view",
      "type": "function"
    },
    {
      "inputs": [],
      "name": "totalSupply",
      "outputs": [
        {
          "internalType": "uint256",
          "name": "",
          "type": "uint256"
        }
      ],
      "stateMutability": "view",
      "type": "function"
    },
    {
      "inputs": [
        {
          "internalType": "address",
          "name": "to",
          "type": "address"
        },
        {
          "internalType": "uint256",
          "name": "amount",
          "type": "uint256"
        }
      ],
      "name": "transfer",
      "outputs": [],
      "stateMutability": "nonpayable",
      "type": "function"
    },
    {
      "inputs": [
        {
          "internalType": "address",
          "name": "sender",
          "type": "address"
        },
        {
          "internalType": "address",
          "name": "recepient",
          "type": "address"
        },
        {
          "internalType": "uint256",
          "name": "amount",
          "type": "uint256"
        }
      ],
      "name": "transferFrom",
      "outputs": [],
      "stateMutability": "nonpayable",
      "type": "function"
    },
    {
      "inputs": [
        {
          "internalType": "bool",
          "name": "_choose",
          "type": "bool"
        }
      ],
      "name": "vote",
      "outputs": [],
      "stateMutability": "nonpayable",
      "type": "function"
    },
    {
      "inputs": [],
      "name": "voting",
      "outputs": [
        {
          "internalType": "bool",
          "name": "",
          "type": "bool"
        }
      ],
      "stateMutability": "view",
      "type": "function"
    },
    {
      "inputs": [
        {
          "internalType": "uint256",
          "name": "_amount",
          "type": "uint256"
        }
      ],
      "name": "withdraw",
      "outputs": [],
      "stateMutability": "nonpayable",
      "type": "function"
    },
    {
      "stateMutability": "payable",
      "type": "receive"
    }
  ],
  "bytecode": "0x60806040526040518060400160405280601481526020017f466f75727468204976617369756b20546f6b656e0000000000000000000000008152506008908051906020019062000051929190620003e7565b506040518060400160405280600481526020017f4956533300000000000000000000000000000000000000000000000000000000815250600990805190602001906200009f929190620003e7565b506012600a60006101000a81548160ff021916908360ff160217905550348015620000c957600080fd5b5060018060003373ffffffffffffffffffffffffffffffffffffffff1673ffffffffffffffffffffffffffffffffffffffff16815260200190815260200160002060006101000a81548160ff021916908315150217905550600260008154809291906200013690620004d0565b91905055506200014e6014336200015460201b60201c565b620009d1565b600160003373ffffffffffffffffffffffffffffffffffffffff1673ffffffffffffffffffffffffffffffffffffffff16815260200190815260200160002060009054906101000a900460ff16620001e3576040517f08c379a0000000000000000000000000000000000000000000000000000000008152600401620001da906200057e565b60405180910390fd5b600373__$d63b1d3c5d9b60c92d6baf33b2a688236c$__63bc2b405c909183600a60009054906101000a900460ff16600a62000220919062000701565b866200022d919062000752565b600373__$d63b1d3c5d9b60c92d6baf33b2a688236c$__63732a2ccf9091886040518363ffffffff1660e01b81526004016200026b929190620007ff565b602060405180830381865af415801562000289573d6000803e3d6000fd5b505050506040513d601f19601f82011682018060405250810190620002af919062000862565b620002bb919062000894565b6040518463ffffffff1660e01b8152600401620002db9392919062000902565b60006040518083038186803b158015620002f457600080fd5b505af415801562000309573d6000803e3d6000fd5b50505050600a60009054906101000a900460ff16600a6200032b919062000701565b8262000338919062000752565b6000808282546200034a919062000894565b925050819055508073ffffffffffffffffffffffffffffffffffffffff16600073ffffffffffffffffffffffffffffffffffffffff167fddf252ad1be2c89b69c2b068fc378daa952ba7f163c4a11628f55a4df523b3ef600a60009054906101000a900460ff16600a620003bf919062000701565b85620003cc919062000752565b604051620003db919062000950565b60405180910390a35050565b828054620003f5906200099c565b90600052602060002090601f01602090048101928262000419576000855562000465565b82601f106200043457805160ff191683800117855562000465565b8280016001018555821562000465579182015b828111156200046457825182559160200191906001019062000447565b5b50905062000474919062000478565b5090565b5b808211156200049357600081600090555060010162000479565b5090565b7f4e487b7100000000000000000000000000000000000000000000000000000000600052601160045260246000fd5b6000819050919050565b6000620004dd82620004c6565b91507fffffffffffffffffffffffffffffffffffffffffffffffffffffffffffffffff820362000512576200051162000497565b5b600182019050919050565b600082825260208201905092915050565b7f4e6f7420616e64206f776e657200000000000000000000000000000000000000600082015250565b600062000566600d836200051d565b915062000573826200052e565b602082019050919050565b60006020820190508181036000830152620005998162000557565b9050919050565b60008160011c9050919050565b6000808291508390505b6001851115620005ff57808604811115620005d757620005d662000497565b5b6001851615620005e75780820291505b8081029050620005f785620005a0565b9450620005b7565b94509492505050565b6000826200061a5760019050620006ed565b816200062a5760009050620006ed565b81600181146200064357600281146200064e5762000684565b6001915050620006ed565b60ff84111562000663576200066262000497565b5b8360020a9150848211156200067d576200067c62000497565b5b50620006ed565b5060208310610133831016604e8410600b8410161715620006be5782820a905083811115620006b857620006b762000497565b5b620006ed565b620006cd8484846001620005ad565b92509050818404811115620006e757620006e662000497565b5b81810290505b9392505050565b600060ff82169050919050565b60006200070e82620004c6565b91506200071b83620006f4565b92506200074a7fffffffffffffffffffffffffffffffffffffffffffffffffffffffffffffffff848462000608565b905092915050565b60006200075f82620004c6565b91506200076c83620004c6565b9250817fffffffffffffffffffffffffffffffffffffffffffffffffffffffffffffffff0483118215151615620007a857620007a762000497565b5b828202905092915050565b8082525050565b600073ffffffffffffffffffffffffffffffffffffffff82169050919050565b6000620007e782620007ba565b9050919050565b620007f981620007da565b82525050565b6000604082019050620008166000830185620007b3565b620008256020830184620007ee565b9392505050565b600080fd5b6200083c81620004c6565b81146200084857600080fd5b50565b6000815190506200085c8162000831565b92915050565b6000602082840312156200087b576200087a6200082c565b5b60006200088b848285016200084b565b91505092915050565b6000620008a182620004c6565b9150620008ae83620004c6565b9250827fffffffffffffffffffffffffffffffffffffffffffffffffffffffffffffffff03821115620008e657620008e562000497565b5b828201905092915050565b620008fc81620004c6565b82525050565b6000606082019050620009196000830186620007b3565b620009286020830185620007ee565b620009376040830184620008f1565b949350505050565b6200094a81620004c6565b82525050565b60006020820190506200096760008301846200093f565b92915050565b7f4e487b7100000000000000000000000000000000000000000000000000000000600052602260045260246000fd5b60006002820490506001821680620009b557607f821691505b602082108103620009cb57620009ca6200096d565b5b50919050565b6125c580620009e16000396000f3fe6080604052600436106101185760003560e01c80636c8381f8116100a0578063a9059cbb11610064578063a9059cbb1461058d578063b9488546146105b6578063cb8106f4146105e1578063dd62ed3e1461061e578063fce1ccca1461065b57610328565b80636c8381f8146104a657806370a08231146104d157806394bf804d1461050e57806395d89b41146105375780639eda1ca01461056257610328565b806323b872dd116100e757806323b872dd146103d55780632e1a7d4d146103fe578063313ce567146104275780634b9f5c98146104525780636b4ed21b1461047b57610328565b806306fdde031461032d57806307880b7f14610358578063095ea7b31461038157806318160ddd146103aa57610328565b3661032857600034905060005b600373__$d63b1d3c5d9b60c92d6baf33b2a688236c$__63deb3d89690916040518263ffffffff1660e01b815260040161015f9190611a2b565b602060405180830381865af415801561017c573d6000803e3d6000fd5b505050506040513d601f19601f820116820180604052508101906101a09190611a81565b811015610326576000600373__$d63b1d3c5d9b60c92d6baf33b2a688236c$__63d1aa9e7e9091846040518363ffffffff1660e01b81526004016101e5929190611abd565b602060405180830381865af4158015610202573d6000803e3d6000fd5b505050506040513d601f19601f820116820180604052508101906102269190611b44565b9050600054600373__$d63b1d3c5d9b60c92d6baf33b2a688236c$__63732a2ccf9091846040518363ffffffff1660e01b8152600401610267929190611b80565b602060405180830381865af4158015610284573d6000803e3d6000fd5b505050506040513d601f19601f820116820180604052508101906102a89190611a81565b846102b39190611bd8565b6102bd9190611c61565b600760008373ffffffffffffffffffffffffffffffffffffffff1673ffffffffffffffffffffffffffffffffffffffff168152602001908152602001600020600082825461030b9190611c92565b9250508190555050808061031e90611ce8565b915050610125565b005b600080fd5b34801561033957600080fd5b50610342610686565b60405161034f9190611dc9565b60405180910390f35b34801561036457600080fd5b5061037f600480360381019061037a9190611e00565b610718565b005b34801561038d57600080fd5b506103a860048036038101906103a39190611e42565b610859565b005b3480156103b657600080fd5b506103bf6108de565b6040516103cc9190611e91565b60405180910390f35b3480156103e157600080fd5b506103fc60048036038101906103f79190611eac565b6108e7565b005b34801561040a57600080fd5b5061042560048036038101906104209190611eff565b610cdc565b005b34801561043357600080fd5b5061043c610f58565b6040516104499190611e91565b60405180910390f35b34801561045e57600080fd5b5061047960048036038101906104749190611f64565b610f72565b005b34801561048757600080fd5b506104906111e0565b60405161049d9190611e91565b60405180910390f35b3480156104b257600080fd5b506104bb611262565b6040516104c89190611fa0565b60405180910390f35b3480156104dd57600080fd5b506104f860048036038101906104f39190611e00565b611288565b6040516105059190611e91565b60405180910390f35b34801561051a57600080fd5b5061053560048036038101906105309190611fbb565b61130e565b005b34801561054357600080fd5b5061054c611583565b6040516105599190611dc9565b60405180910390f35b34801561056e57600080fd5b50610577611615565b6040516105849190611e91565b60405180910390f35b34801561059957600080fd5b506105b460048036038101906105af9190611e42565b61165c565b005b3480156105c257600080fd5b506105cb6118fe565b6040516105d89190611e91565b60405180910390f35b3480156105ed57600080fd5b5061060860048036038101906106039190611eff565b611904565b6040516106159190611fa0565b60405180910390f35b34801561062a57600080fd5b5061064560048036038101906106409190611ffb565b61198a565b6040516106529190611e91565b60405180910390f35b34801561066757600080fd5b50610670611a11565b60405161067d919061204a565b60405180910390f35b60606008805461069590612094565b80601f01602080910402602001604051908101604052809291908181526020018280546106c190612094565b801561070e5780601f106106e35761010080835404028352916020019161070e565b820191906000526020600020905b8154815290600101906020018083116106f157829003601f168201915b5050505050905090565b600160003373ffffffffffffffffffffffffffffffffffffffff1673ffffffffffffffffffffffffffffffffffffffff16815260200190815260200160002060009054906101000a900460ff166107a4576040517f08c379a000000000000000000000000000000000000000000000000000000000815260040161079b90612111565b60405180910390fd5b60001515600a60159054906101000a900460ff161515146107fa576040517f08c379a00000000000000000000000000000000000000000000000000000000081526004016107f19061217d565b60405180910390fd5b6001600a60156101000a81548160ff02191690831515021790555080600a60016101000a81548173ffffffffffffffffffffffffffffffffffffffff021916908373ffffffffffffffffffffffffffffffffffffffff16021790555050565b80600d60003373ffffffffffffffffffffffffffffffffffffffff1673ffffffffffffffffffffffffffffffffffffffff16815260200190815260200160002060008473ffffffffffffffffffffffffffffffffffffffff1673ffffffffffffffffffffffffffffffffffffffff168152602001908152602001600020819055505050565b60008054905090565b8281806108f383611288565b1015610934576040517f08c379a000000000000000000000000000000000000000000000000000000000815260040161092b906121e9565b60405180910390fd5b82600d60008773ffffffffffffffffffffffffffffffffffffffff1673ffffffffffffffffffffffffffffffffffffffff16815260200190815260200160002060003373ffffffffffffffffffffffffffffffffffffffff1673ffffffffffffffffffffffffffffffffffffffff1681526020019081526020016000205410156109f3576040517f08c379a00000000000000000000000000000000000000000000000000000000081526004016109ea9061227b565b60405180910390fd5b82600d60008773ffffffffffffffffffffffffffffffffffffffff1673ffffffffffffffffffffffffffffffffffffffff16815260200190815260200160002060003373ffffffffffffffffffffffffffffffffffffffff1673ffffffffffffffffffffffffffffffffffffffff1681526020019081526020016000206000828254610a7f919061229b565b92505081905550600373__$d63b1d3c5d9b60c92d6baf33b2a688236c$__63bc2b405c90918786600373__$d63b1d3c5d9b60c92d6baf33b2a688236c$__63732a2ccf90918c6040518363ffffffff1660e01b8152600401610ae2929190611b80565b602060405180830381865af4158015610aff573d6000803e3d6000fd5b505050506040513d601f19601f82011682018060405250810190610b239190611a81565b610b2d919061229b565b6040518463ffffffff1660e01b8152600401610b4b939291906122cf565b60006040518083038186803b158015610b6357600080fd5b505af4158015610b77573d6000803e3d6000fd5b50505050600373__$d63b1d3c5d9b60c92d6baf33b2a688236c$__63bc2b405c90918686600373__$d63b1d3c5d9b60c92d6baf33b2a688236c$__63732a2ccf90918b6040518363ffffffff1660e01b8152600401610bd7929190611b80565b602060405180830381865af4158015610bf4573d6000803e3d6000fd5b505050506040513d601f19601f82011682018060405250810190610c189190611a81565b610c229190611c92565b6040518463ffffffff1660e01b8152600401610c40939291906122cf565b60006040518083038186803b158015610c5857600080fd5b505af4158015610c6c573d6000803e3d6000fd5b505050508373ffffffffffffffffffffffffffffffffffffffff168573ffffffffffffffffffffffffffffffffffffffff167fddf252ad1be2c89b69c2b068fc378daa952ba7f163c4a11628f55a4df523b3ef85604051610ccd9190611e91565b60405180910390a35050505050565b80600760003373ffffffffffffffffffffffffffffffffffffffff1673ffffffffffffffffffffffffffffffffffffffff168152602001908152602001600020541015610d5e576040517f08c379a0000000000000000000000000000000000000000000000000000000008152600401610d5590612378565b60405180910390fd5b80600760003373ffffffffffffffffffffffffffffffffffffffff1673ffffffffffffffffffffffffffffffffffffffff1681526020019081526020016000206000828254610dad919061229b565b92505081905550600373__$d63b1d3c5d9b60c92d6baf33b2a688236c$__63bc2b405c90913384600373__$d63b1d3c5d9b60c92d6baf33b2a688236c$__63732a2ccf9091336040518363ffffffff1660e01b8152600401610e10929190611b80565b602060405180830381865af4158015610e2d573d6000803e3d6000fd5b505050506040513d601f19601f82011682018060405250810190610e519190611a81565b610e5b9190611c92565b6040518463ffffffff1660e01b8152600401610e79939291906122cf565b60006040518083038186803b158015610e9157600080fd5b505af4158015610ea5573d6000803e3d6000fd5b505050503373ffffffffffffffffffffffffffffffffffffffff166108fc829081150290604051600060405180830381858888f19350505050158015610eef573d6000803e3d6000fd5b503373ffffffffffffffffffffffffffffffffffffffff163073ffffffffffffffffffffffffffffffffffffffff167fddf252ad1be2c89b69c2b068fc378daa952ba7f163c4a11628f55a4df523b3ef83604051610f4d9190611e91565b60405180910390a350565b6000600a60009054906101000a900460ff1660ff16905090565b600160003373ffffffffffffffffffffffffffffffffffffffff1673ffffffffffffffffffffffffffffffffffffffff16815260200190815260200160002060009054906101000a900460ff16610ffe576040517f08c379a0000000000000000000000000000000000000000000000000000000008152600401610ff590612111565b60405180910390fd5b60011515600a60159054906101000a900460ff16151514611054576040517f08c379a000000000000000000000000000000000000000000000000000000000815260040161104b906123e4565b60405180910390fd5b600115158115150361107d57600b600081548092919061107390611ce8565b9190505550611096565b600c600081548092919061109090611ce8565b91905055505b600280546110a49190611c61565b600b5411806110c15750600280546110bc9190611c61565b600c54115b156111dd57600280546110d49190611c61565b600b54111561116f576001806000600a60019054906101000a900473ffffffffffffffffffffffffffffffffffffffff1673ffffffffffffffffffffffffffffffffffffffff1673ffffffffffffffffffffffffffffffffffffffff16815260200190815260200160002060006101000a81548160ff0219169083151502179055506002600081548092919061116990611ce8565b91905055505b6000600a60016101000a81548173ffffffffffffffffffffffffffffffffffffffff021916908373ffffffffffffffffffffffffffffffffffffffff1602179055506000600a60156101000a81548160ff0219169083151502179055506000600b819055506000600c819055505b50565b6000600373__$d63b1d3c5d9b60c92d6baf33b2a688236c$__63deb3d89690916040518263ffffffff1660e01b815260040161121c9190611a2b565b602060405180830381865af4158015611239573d6000803e3d6000fd5b505050506040513d601f19601f8201168201806040525081019061125d9190611a81565b905090565b600a60019054906101000a900473ffffffffffffffffffffffffffffffffffffffff1681565b6000600373__$d63b1d3c5d9b60c92d6baf33b2a688236c$__63732a2ccf9091846040518363ffffffff1660e01b81526004016112c6929190611b80565b602060405180830381865af41580156112e3573d6000803e3d6000fd5b505050506040513d601f19601f820116820180604052508101906113079190611a81565b9050919050565b600160003373ffffffffffffffffffffffffffffffffffffffff1673ffffffffffffffffffffffffffffffffffffffff16815260200190815260200160002060009054906101000a900460ff1661139a576040517f08c379a000000000000000000000000000000000000000000000000000000000815260040161139190612111565b60405180910390fd5b600373__$d63b1d3c5d9b60c92d6baf33b2a688236c$__63bc2b405c909183600a60009054906101000a900460ff16600a6113d59190612544565b866113e09190611bd8565b600373__$d63b1d3c5d9b60c92d6baf33b2a688236c$__63732a2ccf9091886040518363ffffffff1660e01b815260040161141c929190611b80565b602060405180830381865af4158015611439573d6000803e3d6000fd5b505050506040513d601f19601f8201168201806040525081019061145d9190611a81565b6114679190611c92565b6040518463ffffffff1660e01b8152600401611485939291906122cf565b60006040518083038186803b15801561149d57600080fd5b505af41580156114b1573d6000803e3d6000fd5b50505050600a60009054906101000a900460ff16600a6114d19190612544565b826114dc9190611bd8565b6000808282546114ec9190611c92565b925050819055508073ffffffffffffffffffffffffffffffffffffffff16600073ffffffffffffffffffffffffffffffffffffffff167fddf252ad1be2c89b69c2b068fc378daa952ba7f163c4a11628f55a4df523b3ef600a60009054906101000a900460ff16600a61155f9190612544565b8561156a9190611bd8565b6040516115779190611e91565b60405180910390a35050565b60606009805461159290612094565b80601f01602080910402602001604051908101604052809291908181526020018280546115be90612094565b801561160b5780601f106115e05761010080835404028352916020019161160b565b820191906000526020600020905b8154815290600101906020018083116115ee57829003601f168201915b5050505050905090565b6000600760003373ffffffffffffffffffffffffffffffffffffffff1673ffffffffffffffffffffffffffffffffffffffff16815260200190815260200160002054905090565b33818061166883611288565b10156116a9576040517f08c379a00000000000000000000000000000000000000000000000000000000081526004016116a0906121e9565b60405180910390fd5b600373__$d63b1d3c5d9b60c92d6baf33b2a688236c$__63bc2b405c90913386600373__$d63b1d3c5d9b60c92d6baf33b2a688236c$__63732a2ccf9091336040518363ffffffff1660e01b8152600401611705929190611b80565b602060405180830381865af4158015611722573d6000803e3d6000fd5b505050506040513d601f19601f820116820180604052508101906117469190611a81565b611750919061229b565b6040518463ffffffff1660e01b815260040161176e939291906122cf565b60006040518083038186803b15801561178657600080fd5b505af415801561179a573d6000803e3d6000fd5b50505050600373__$d63b1d3c5d9b60c92d6baf33b2a688236c$__63bc2b405c90918686600373__$d63b1d3c5d9b60c92d6baf33b2a688236c$__63732a2ccf90918b6040518363ffffffff1660e01b81526004016117fa929190611b80565b602060405180830381865af4158015611817573d6000803e3d6000fd5b505050506040513d601f19601f8201168201806040525081019061183b9190611a81565b6118459190611c92565b6040518463ffffffff1660e01b8152600401611863939291906122cf565b60006040518083038186803b15801561187b57600080fd5b505af415801561188f573d6000803e3d6000fd5b505050508373ffffffffffffffffffffffffffffffffffffffff163373ffffffffffffffffffffffffffffffffffffffff167fddf252ad1be2c89b69c2b068fc378daa952ba7f163c4a11628f55a4df523b3ef856040516118f09190611e91565b60405180910390a350505050565b60025481565b6000600373__$d63b1d3c5d9b60c92d6baf33b2a688236c$__63d1aa9e7e9091846040518363ffffffff1660e01b8152600401611942929190611abd565b602060405180830381865af415801561195f573d6000803e3d6000fd5b505050506040513d601f19601f820116820180604052508101906119839190611b44565b9050919050565b6000600d60008473ffffffffffffffffffffffffffffffffffffffff1673ffffffffffffffffffffffffffffffffffffffff16815260200190815260200160002060008373ffffffffffffffffffffffffffffffffffffffff1673ffffffffffffffffffffffffffffffffffffffff16815260200190815260200160002054905092915050565b600a60159054906101000a900460ff1681565b8082525050565b6000602082019050611a406000830184611a24565b92915050565b600080fd5b6000819050919050565b611a5e81611a4b565b8114611a6957600080fd5b50565b600081519050611a7b81611a55565b92915050565b600060208284031215611a9757611a96611a46565b5b6000611aa584828501611a6c565b91505092915050565b611ab781611a4b565b82525050565b6000604082019050611ad26000830185611a24565b611adf6020830184611aae565b9392505050565b600073ffffffffffffffffffffffffffffffffffffffff82169050919050565b6000611b1182611ae6565b9050919050565b611b2181611b06565b8114611b2c57600080fd5b50565b600081519050611b3e81611b18565b92915050565b600060208284031215611b5a57611b59611a46565b5b6000611b6884828501611b2f565b91505092915050565b611b7a81611b06565b82525050565b6000604082019050611b956000830185611a24565b611ba26020830184611b71565b9392505050565b7f4e487b7100000000000000000000000000000000000000000000000000000000600052601160045260246000fd5b6000611be382611a4b565b9150611bee83611a4b565b9250817fffffffffffffffffffffffffffffffffffffffffffffffffffffffffffffffff0483118215151615611c2757611c26611ba9565b5b828202905092915050565b7f4e487b7100000000000000000000000000000000000000000000000000000000600052601260045260246000fd5b6000611c6c82611a4b565b9150611c7783611a4b565b925082611c8757611c86611c32565b5b828204905092915050565b6000611c9d82611a4b565b9150611ca883611a4b565b9250827fffffffffffffffffffffffffffffffffffffffffffffffffffffffffffffffff03821115611cdd57611cdc611ba9565b5b828201905092915050565b6000611cf382611a4b565b91507fffffffffffffffffffffffffffffffffffffffffffffffffffffffffffffffff8203611d2557611d24611ba9565b5b600182019050919050565b600081519050919050565b600082825260208201905092915050565b60005b83811015611d6a578082015181840152602081019050611d4f565b83811115611d79576000848401525b50505050565b6000601f19601f8301169050919050565b6000611d9b82611d30565b611da58185611d3b565b9350611db5818560208601611d4c565b611dbe81611d7f565b840191505092915050565b60006020820190508181036000830152611de38184611d90565b905092915050565b600081359050611dfa81611b18565b92915050565b600060208284031215611e1657611e15611a46565b5b6000611e2484828501611deb565b91505092915050565b600081359050611e3c81611a55565b92915050565b60008060408385031215611e5957611e58611a46565b5b6000611e6785828601611deb565b9250506020611e7885828601611e2d565b9150509250929050565b611e8b81611a4b565b82525050565b6000602082019050611ea66000830184611e82565b92915050565b600080600060608486031215611ec557611ec4611a46565b5b6000611ed386828701611deb565b9350506020611ee486828701611deb565b9250506040611ef586828701611e2d565b9150509250925092565b600060208284031215611f1557611f14611a46565b5b6000611f2384828501611e2d565b91505092915050565b60008115159050919050565b611f4181611f2c565b8114611f4c57600080fd5b50565b600081359050611f5e81611f38565b92915050565b600060208284031215611f7a57611f79611a46565b5b6000611f8884828501611f4f565b91505092915050565b611f9a81611b06565b82525050565b6000602082019050611fb56000830184611f91565b92915050565b60008060408385031215611fd257611fd1611a46565b5b6000611fe085828601611e2d565b9250506020611ff185828601611deb565b9150509250929050565b6000806040838503121561201257612011611a46565b5b600061202085828601611deb565b925050602061203185828601611deb565b9150509250929050565b61204481611f2c565b82525050565b600060208201905061205f600083018461203b565b92915050565b7f4e487b7100000000000000000000000000000000000000000000000000000000600052602260045260246000fd5b600060028204905060018216806120ac57607f821691505b6020821081036120bf576120be612065565b5b50919050565b7f4e6f7420616e64206f776e657200000000000000000000000000000000000000600082015250565b60006120fb600d83611d3b565b9150612106826120c5565b602082019050919050565b6000602082019050818103600083015261212a816120ee565b9050919050565b7f54686520766f74696e6720697320737461727465640000000000000000000000600082015250565b6000612167601583611d3b565b915061217282612131565b602082019050919050565b600060208201905081810360008301526121968161215a565b9050919050565b7f4e6f7420656e6f75676820746f6b656e73000000000000000000000000000000600082015250565b60006121d3601183611d3b565b91506121de8261219d565b602082019050919050565b60006020820190508181036000830152612202816121c6565b9050919050565b7f596f752063616e2774207472616e73666572207468697320616d6f756e74206f60008201527f6620746f6b656e73000000000000000000000000000000000000000000000000602082015250565b6000612265602883611d3b565b915061227082612209565b604082019050919050565b6000602082019050818103600083015261229481612258565b9050919050565b60006122a682611a4b565b91506122b183611a4b565b9250828210156122c4576122c3611ba9565b5b828203905092915050565b60006060820190506122e46000830186611a24565b6122f16020830185611b71565b6122fe6040830184611aae565b949350505050565b7f4e6f7420656e6f75676820746f6b656e73206f6e20776974686472617720626160008201527f6c616e6365000000000000000000000000000000000000000000000000000000602082015250565b6000612362602583611d3b565b915061236d82612306565b604082019050919050565b6000602082019050818103600083015261239181612355565b9050919050565b7f566f74696e672069736e27742073746172746564000000000000000000000000600082015250565b60006123ce601483611d3b565b91506123d982612398565b602082019050919050565b600060208201905081810360008301526123fd816123c1565b9050919050565b60008160011c9050919050565b6000808291508390505b600185111561245b5780860481111561243757612436611ba9565b5b60018516156124465780820291505b808102905061245485612404565b945061241b565b94509492505050565b6000826124745760019050612530565b816124825760009050612530565b816001811461249857600281146124a2576124d1565b6001915050612530565b60ff8411156124b4576124b3611ba9565b5b8360020a9150848211156124cb576124ca611ba9565b5b50612530565b5060208310610133831016604e8410600b84101617156125065782820a90508381111561250157612500611ba9565b5b612530565b6125138484846001612411565b9250905081840481111561252a57612529611ba9565b5b81810290505b9392505050565b600060ff82169050919050565b600061254f82611a4b565b915061255a83612537565b92506125877fffffffffffffffffffffffffffffffffffffffffffffffffffffffffffffffff8484612464565b90509291505056fea2646970667358221220fb3ad1b4ab690e77dadffa1f9873c91dc0a7fa7da2a45ff9518b41d68384a80564736f6c634300080d0033",
  "linkReferences": {
    "contracts/itMaps.sol": {
      "IterableMapping": [
        {
          "length": 20,
          "start": 487
        },
        {
          "length": 20,
          "start": 561
        },
        {
          "length": 20,
          "start": 2826
        },
        {
          "length": 20,
          "start": 2958
        },
        {
          "length": 20,
          "start": 3088
        },
        {
          "length": 20,
          "start": 5227
        },
        {
          "length": 20,
          "start": 5259
        },
        {
          "length": 20,
          "start": 5472
        },
        {
          "length": 20,
          "start": 5504
        },
        {
          "length": 20,
          "start": 6041
        },
        {
          "length": 20,
          "start": 6073
        },
        {
          "length": 20,
          "start": 7111
        },
        {
          "length": 20,
          "start": 7279
        },
        {
          "length": 20,
          "start": 7551
        },
        {
          "length": 20,
          "start": 7621
        },
        {
          "length": 20,
          "start": 8334
        },
        {
          "length": 20,
          "start": 8366
        },
        {
          "length": 20,
          "start": 8579
        },
        {
          "length": 20,
          "start": 8611
        },
        {
          "length": 20,
          "start": 8939
        }
      ]
    }
  },
  "deployedLinkReferences": {
    "contracts/itMaps.sol": {
      "IterableMapping": [
        {
          "length": 20,
          "start": 297
        },
        {
          "length": 20,
          "start": 429
        },
        {
          "length": 20,
          "start": 559
        },
        {
          "length": 20,
          "start": 2698
        },
        {
          "length": 20,
          "start": 2730
        },
        {
          "length": 20,
          "start": 2943
        },
        {
          "length": 20,
          "start": 2975
        },
        {
          "length": 20,
          "start": 3512
        },
        {
          "length": 20,
          "start": 3544
        },
        {
          "length": 20,
          "start": 4582
        },
        {
          "length": 20,
          "start": 4750
        },
        {
          "length": 20,
          "start": 5022
        },
        {
          "length": 20,
          "start": 5092
        },
        {
          "length": 20,
          "start": 5805
        },
        {
          "length": 20,
          "start": 5837
        },
        {
          "length": 20,
          "start": 6050
        },
        {
          "length": 20,
          "start": 6082
        },
        {
          "length": 20,
          "start": 6410
        }
      ]
    }
  }
}