{
  "_format": "hh-sol-artifact-1",
  "contractName": "Token",
  "sourceName": "contracts/Token.sol",
  "abi": [
    {
      "inputs": [],
      "stateMutability": "nonpayable",
      "type": "constructor"
    },
    {
      "anonymous": false,
      "inputs": [
        {
          "indexed": true,
          "internalType": "address",
          "name": "from",
          "type": "address"
        },
        {
          "indexed": true,
          "internalType": "address",
          "name": "to",
          "type": "address"
        },
        {
          "indexed": false,
          "internalType": "uint256",
          "name": "amount",
          "type": "uint256"
        }
      ],
      "name": "Transfer",
      "type": "event"
    },
    {
      "inputs": [
        {
          "internalType": "address",
          "name": "_owner",
          "type": "address"
        },
        {
          "internalType": "address",
          "name": "_spender",
          "type": "address"
        }
      ],
      "name": "allowance",
      "outputs": [
        {
          "internalType": "uint256",
          "name": "",
          "type": "uint256"
        }
      ],
      "stateMutability": "view",
      "type": "function"
    },
    {
      "inputs": [
        {
          "internalType": "address",
          "name": "_spender",
          "type": "address"
        },
        {
          "internalType": "uint256",
          "name": "_amount",
          "type": "uint256"
        }
      ],
      "name": "approve",
      "outputs": [],
      "stateMutability": "nonpayable",
      "type": "function"
    },
    {
      "inputs": [
        {
          "internalType": "address",
          "name": "account",
          "type": "address"
        }
      ],
      "name": "balanceOf",
      "outputs": [
        {
          "internalType": "uint256",
          "name": "",
          "type": "uint256"
        }
      ],
      "stateMutability": "view",
      "type": "function"
    },
    {
      "inputs": [],
      "name": "candidate",
      "outputs": [
        {
          "internalType": "address",
          "name": "",
          "type": "address"
        }
      ],
      "stateMutability": "view",
      "type": "function"
    },
    {
      "inputs": [],
      "name": "checkWithdrawBalance",
      "outputs": [
        {
          "internalType": "uint256",
          "name": "",
          "type": "uint256"
        }
      ],
      "stateMutability": "view",
      "type": "function"
    },
    {
      "inputs": [],
      "name": "decimals",
      "outputs": [
        {
          "internalType": "uint256",
          "name": "",
          "type": "uint256"
        }
      ],
      "stateMutability": "pure",
      "type": "function"
    },
    {
      "inputs": [
        {
          "internalType": "uint256",
          "name": "_index",
          "type": "uint256"
        }
      ],
      "name": "getHolderByIndex",
      "outputs": [
        {
          "internalType": "address",
          "name": "",
          "type": "address"
        }
      ],
      "stateMutability": "view",
      "type": "function"
    },
    {
      "inputs": [],
      "name": "holdersCount",
      "outputs": [
        {
          "internalType": "uint256",
          "name": "",
          "type": "uint256"
        }
      ],
      "stateMutability": "view",
      "type": "function"
    },
    {
      "inputs": [
        {
          "internalType": "uint256",
          "name": "amount",
          "type": "uint256"
        },
        {
          "internalType": "address",
          "name": "_to",
          "type": "address"
        }
      ],
      "name": "mint",
      "outputs": [],
      "stateMutability": "nonpayable",
      "type": "function"
    },
    {
      "inputs": [],
      "name": "name",
      "outputs": [
        {
          "internalType": "string",
          "name": "",
          "type": "string"
        }
      ],
      "stateMutability": "view",
      "type": "function"
    },
    {
      "inputs": [],
      "name": "ownersCount",
      "outputs": [
        {
          "internalType": "uint256",
          "name": "",
          "type": "uint256"
        }
      ],
      "stateMutability": "view",
      "type": "function"
    },
    {
      "inputs": [
        {
          "internalType": "address",
          "name": "_new",
          "type": "address"
        }
      ],
      "name": "setCandidate",
      "outputs": [],
      "stateMutability": "nonpayable",
      "type": "function"
    },
    {
      "inputs": [],
      "name": "symbol",
      "outputs": [
        {
          "internalType": "string",
          "name": "",
          "type": "string"
        }
      ],
      "stateMutability": "view",
      "type": "function"
    },
    {
      "inputs": [],
      "name": "totalSupply",
      "outputs": [
        {
          "internalType": "uint256",
          "name": "",
          "type": "uint256"
        }
      ],
      "stateMutability": "view",
      "type": "function"
    },
    {
      "inputs": [
        {
          "internalType": "address",
          "name": "to",
          "type": "address"
        },
        {
          "internalType": "uint256",
          "name": "amount",
          "type": "uint256"
        }
      ],
      "name": "transfer",
      "outputs": [],
      "stateMutability": "nonpayable",
      "type": "function"
    },
    {
      "inputs": [
        {
          "internalType": "address",
          "name": "sender",
          "type": "address"
        },
        {
          "internalType": "address",
          "name": "recepient",
          "type": "address"
        },
        {
          "internalType": "uint256",
          "name": "amount",
          "type": "uint256"
        }
      ],
      "name": "transferFrom",
      "outputs": [],
      "stateMutability": "nonpayable",
      "type": "function"
    },
    {
      "inputs": [
        {
          "internalType": "bool",
          "name": "_choose",
          "type": "bool"
        }
      ],
      "name": "vote",
      "outputs": [],
      "stateMutability": "nonpayable",
      "type": "function"
    },
    {
      "inputs": [],
      "name": "voting",
      "outputs": [
        {
          "internalType": "bool",
          "name": "",
          "type": "bool"
        }
      ],
      "stateMutability": "view",
      "type": "function"
    },
    {
      "inputs": [
        {
          "internalType": "uint256",
          "name": "_amount",
          "type": "uint256"
        }
      ],
      "name": "withdraw",
      "outputs": [],
      "stateMutability": "nonpayable",
      "type": "function"
    },
    {
      "stateMutability": "payable",
      "type": "receive"
    }
  ],
  "bytecode": "0x60806040526040518060400160405280601481526020017f466f75727468204976617369756b20546f6b656e000000000000000000000000815250600890805190602001906200005192919062000355565b506040518060400160405280600481526020017f4956533300000000000000000000000000000000000000000000000000000000815250600990805190602001906200009f92919062000355565b50348015620000ad57600080fd5b5060018060003373ffffffffffffffffffffffffffffffffffffffff1673ffffffffffffffffffffffffffffffffffffffff16815260200190815260200160002060006101000a81548160ff021916908315150217905550600260008154809291906200011a906200043e565b91905055506200013a6801158e460913d00000336200014060201b60201c565b6200072c565b600160003373ffffffffffffffffffffffffffffffffffffffff1673ffffffffffffffffffffffffffffffffffffffff16815260200190815260200160002060009054906101000a900460ff16620001cf576040517f08c379a0000000000000000000000000000000000000000000000000000000008152600401620001c690620004ec565b60405180910390fd5b600373__$d63b1d3c5d9b60c92d6baf33b2a688236c$__63bc2b405c90918385600373__$d63b1d3c5d9b60c92d6baf33b2a688236c$__63732a2ccf9091886040518363ffffffff1660e01b81526004016200022d9291906200055a565b602060405180830381865af41580156200024b573d6000803e3d6000fd5b505050506040513d601f19601f82011682018060405250810190620002719190620005bd565b6200027d9190620005ef565b6040518463ffffffff1660e01b81526004016200029d939291906200065d565b60006040518083038186803b158015620002b657600080fd5b505af4158015620002cb573d6000803e3d6000fd5b5050505081600080828254620002e29190620005ef565b925050819055508073ffffffffffffffffffffffffffffffffffffffff16600073ffffffffffffffffffffffffffffffffffffffff167fddf252ad1be2c89b69c2b068fc378daa952ba7f163c4a11628f55a4df523b3ef84604051620003499190620006ab565b60405180910390a35050565b8280546200036390620006f7565b90600052602060002090601f016020900481019282620003875760008555620003d3565b82601f10620003a257805160ff1916838001178555620003d3565b82800160010185558215620003d3579182015b82811115620003d2578251825591602001919060010190620003b5565b5b509050620003e29190620003e6565b5090565b5b8082111562000401576000816000905550600101620003e7565b5090565b7f4e487b7100000000000000000000000000000000000000000000000000000000600052601160045260246000fd5b6000819050919050565b60006200044b8262000434565b91507fffffffffffffffffffffffffffffffffffffffffffffffffffffffffffffffff820362000480576200047f62000405565b5b600182019050919050565b600082825260208201905092915050565b7f4e6f7420616e64206f776e657200000000000000000000000000000000000000600082015250565b6000620004d4600d836200048b565b9150620004e1826200049c565b602082019050919050565b600060208201905081810360008301526200050781620004c5565b9050919050565b8082525050565b600073ffffffffffffffffffffffffffffffffffffffff82169050919050565b6000620005428262000515565b9050919050565b620005548162000535565b82525050565b60006040820190506200057160008301856200050e565b62000580602083018462000549565b9392505050565b600080fd5b620005978162000434565b8114620005a357600080fd5b50565b600081519050620005b7816200058c565b92915050565b600060208284031215620005d657620005d562000587565b5b6000620005e684828501620005a6565b91505092915050565b6000620005fc8262000434565b9150620006098362000434565b9250827fffffffffffffffffffffffffffffffffffffffffffffffffffffffffffffffff0382111562000641576200064062000405565b5b828201905092915050565b620006578162000434565b82525050565b60006060820190506200067460008301866200050e565b62000683602083018562000549565b6200069260408301846200064c565b949350505050565b620006a58162000434565b82525050565b6000602082019050620006c260008301846200069a565b92915050565b7f4e487b7100000000000000000000000000000000000000000000000000000000600052602260045260246000fd5b600060028204905060018216806200071057607f821691505b602082108103620007265762000725620006c8565b5b50919050565b6123b7806200073c6000396000f3fe6080604052600436106101185760003560e01c80636c8381f8116100a0578063a9059cbb11610064578063a9059cbb1461058d578063b9488546146105b6578063cb8106f4146105e1578063dd62ed3e1461061e578063fce1ccca1461065b57610328565b80636c8381f8146104a657806370a08231146104d157806394bf804d1461050e57806395d89b41146105375780639eda1ca01461056257610328565b806323b872dd116100e757806323b872dd146103d55780632e1a7d4d146103fe578063313ce567146104275780634b9f5c98146104525780636b4ed21b1461047b57610328565b806306fdde031461032d57806307880b7f14610358578063095ea7b31461038157806318160ddd146103aa57610328565b3661032857600034905060005b600373__$d63b1d3c5d9b60c92d6baf33b2a688236c$__63deb3d89690916040518263ffffffff1660e01b815260040161015f91906119a8565b602060405180830381865af415801561017c573d6000803e3d6000fd5b505050506040513d601f19601f820116820180604052508101906101a091906119fe565b811015610326576000600373__$d63b1d3c5d9b60c92d6baf33b2a688236c$__63d1aa9e7e9091846040518363ffffffff1660e01b81526004016101e5929190611a3a565b602060405180830381865af4158015610202573d6000803e3d6000fd5b505050506040513d601f19601f820116820180604052508101906102269190611ac1565b9050600054600373__$d63b1d3c5d9b60c92d6baf33b2a688236c$__63732a2ccf9091846040518363ffffffff1660e01b8152600401610267929190611afd565b602060405180830381865af4158015610284573d6000803e3d6000fd5b505050506040513d601f19601f820116820180604052508101906102a891906119fe565b846102b39190611b55565b6102bd9190611bde565b600760008373ffffffffffffffffffffffffffffffffffffffff1673ffffffffffffffffffffffffffffffffffffffff168152602001908152602001600020600082825461030b9190611c0f565b9250508190555050808061031e90611c65565b915050610125565b005b600080fd5b34801561033957600080fd5b50610342610686565b60405161034f9190611d46565b60405180910390f35b34801561036457600080fd5b5061037f600480360381019061037a9190611d7d565b610718565b005b34801561038d57600080fd5b506103a860048036038101906103a39190611dbf565b610859565b005b3480156103b657600080fd5b506103bf6108de565b6040516103cc9190611e0e565b60405180910390f35b3480156103e157600080fd5b506103fc60048036038101906103f79190611e29565b6108e7565b005b34801561040a57600080fd5b5061042560048036038101906104209190611e7c565b610cdc565b005b34801561043357600080fd5b5061043c610f58565b6040516104499190611e0e565b60405180910390f35b34801561045e57600080fd5b5061047960048036038101906104749190611ee1565b610f61565b005b34801561048757600080fd5b506104906111cf565b60405161049d9190611e0e565b60405180910390f35b3480156104b257600080fd5b506104bb611251565b6040516104c89190611f1d565b60405180910390f35b3480156104dd57600080fd5b506104f860048036038101906104f39190611d7d565b611277565b6040516105059190611e0e565b60405180910390f35b34801561051a57600080fd5b5061053560048036038101906105309190611f38565b6112fd565b005b34801561054357600080fd5b5061054c611500565b6040516105599190611d46565b60405180910390f35b34801561056e57600080fd5b50610577611592565b6040516105849190611e0e565b60405180910390f35b34801561059957600080fd5b506105b460048036038101906105af9190611dbf565b6115d9565b005b3480156105c257600080fd5b506105cb61187b565b6040516105d89190611e0e565b60405180910390f35b3480156105ed57600080fd5b5061060860048036038101906106039190611e7c565b611881565b6040516106159190611f1d565b60405180910390f35b34801561062a57600080fd5b5061064560048036038101906106409190611f78565b611907565b6040516106529190611e0e565b60405180910390f35b34801561066757600080fd5b5061067061198e565b60405161067d9190611fc7565b60405180910390f35b60606008805461069590612011565b80601f01602080910402602001604051908101604052809291908181526020018280546106c190612011565b801561070e5780601f106106e35761010080835404028352916020019161070e565b820191906000526020600020905b8154815290600101906020018083116106f157829003601f168201915b5050505050905090565b600160003373ffffffffffffffffffffffffffffffffffffffff1673ffffffffffffffffffffffffffffffffffffffff16815260200190815260200160002060009054906101000a900460ff166107a4576040517f08c379a000000000000000000000000000000000000000000000000000000000815260040161079b9061208e565b60405180910390fd5b60001515600a60149054906101000a900460ff161515146107fa576040517f08c379a00000000000000000000000000000000000000000000000000000000081526004016107f1906120fa565b60405180910390fd5b6001600a60146101000a81548160ff02191690831515021790555080600a60006101000a81548173ffffffffffffffffffffffffffffffffffffffff021916908373ffffffffffffffffffffffffffffffffffffffff16021790555050565b80600d60003373ffffffffffffffffffffffffffffffffffffffff1673ffffffffffffffffffffffffffffffffffffffff16815260200190815260200160002060008473ffffffffffffffffffffffffffffffffffffffff1673ffffffffffffffffffffffffffffffffffffffff168152602001908152602001600020819055505050565b60008054905090565b8281806108f383611277565b1015610934576040517f08c379a000000000000000000000000000000000000000000000000000000000815260040161092b90612166565b60405180910390fd5b82600d60008773ffffffffffffffffffffffffffffffffffffffff1673ffffffffffffffffffffffffffffffffffffffff16815260200190815260200160002060003373ffffffffffffffffffffffffffffffffffffffff1673ffffffffffffffffffffffffffffffffffffffff1681526020019081526020016000205410156109f3576040517f08c379a00000000000000000000000000000000000000000000000000000000081526004016109ea906121f8565b60405180910390fd5b82600d60008773ffffffffffffffffffffffffffffffffffffffff1673ffffffffffffffffffffffffffffffffffffffff16815260200190815260200160002060003373ffffffffffffffffffffffffffffffffffffffff1673ffffffffffffffffffffffffffffffffffffffff1681526020019081526020016000206000828254610a7f9190612218565b92505081905550600373__$d63b1d3c5d9b60c92d6baf33b2a688236c$__63bc2b405c90918786600373__$d63b1d3c5d9b60c92d6baf33b2a688236c$__63732a2ccf90918c6040518363ffffffff1660e01b8152600401610ae2929190611afd565b602060405180830381865af4158015610aff573d6000803e3d6000fd5b505050506040513d601f19601f82011682018060405250810190610b2391906119fe565b610b2d9190612218565b6040518463ffffffff1660e01b8152600401610b4b9392919061224c565b60006040518083038186803b158015610b6357600080fd5b505af4158015610b77573d6000803e3d6000fd5b50505050600373__$d63b1d3c5d9b60c92d6baf33b2a688236c$__63bc2b405c90918686600373__$d63b1d3c5d9b60c92d6baf33b2a688236c$__63732a2ccf90918b6040518363ffffffff1660e01b8152600401610bd7929190611afd565b602060405180830381865af4158015610bf4573d6000803e3d6000fd5b505050506040513d601f19601f82011682018060405250810190610c1891906119fe565b610c229190611c0f565b6040518463ffffffff1660e01b8152600401610c409392919061224c565b60006040518083038186803b158015610c5857600080fd5b505af4158015610c6c573d6000803e3d6000fd5b505050508373ffffffffffffffffffffffffffffffffffffffff168573ffffffffffffffffffffffffffffffffffffffff167fddf252ad1be2c89b69c2b068fc378daa952ba7f163c4a11628f55a4df523b3ef85604051610ccd9190611e0e565b60405180910390a35050505050565b80600760003373ffffffffffffffffffffffffffffffffffffffff1673ffffffffffffffffffffffffffffffffffffffff168152602001908152602001600020541015610d5e576040517f08c379a0000000000000000000000000000000000000000000000000000000008152600401610d55906122f5565b60405180910390fd5b80600760003373ffffffffffffffffffffffffffffffffffffffff1673ffffffffffffffffffffffffffffffffffffffff1681526020019081526020016000206000828254610dad9190612218565b92505081905550600373__$d63b1d3c5d9b60c92d6baf33b2a688236c$__63bc2b405c90913384600373__$d63b1d3c5d9b60c92d6baf33b2a688236c$__63732a2ccf9091336040518363ffffffff1660e01b8152600401610e10929190611afd565b602060405180830381865af4158015610e2d573d6000803e3d6000fd5b505050506040513d601f19601f82011682018060405250810190610e5191906119fe565b610e5b9190611c0f565b6040518463ffffffff1660e01b8152600401610e799392919061224c565b60006040518083038186803b158015610e9157600080fd5b505af4158015610ea5573d6000803e3d6000fd5b505050503373ffffffffffffffffffffffffffffffffffffffff166108fc829081150290604051600060405180830381858888f19350505050158015610eef573d6000803e3d6000fd5b503373ffffffffffffffffffffffffffffffffffffffff163073ffffffffffffffffffffffffffffffffffffffff167fddf252ad1be2c89b69c2b068fc378daa952ba7f163c4a11628f55a4df523b3ef83604051610f4d9190611e0e565b60405180910390a350565b60006012905090565b600160003373ffffffffffffffffffffffffffffffffffffffff1673ffffffffffffffffffffffffffffffffffffffff16815260200190815260200160002060009054906101000a900460ff16610fed576040517f08c379a0000000000000000000000000000000000000000000000000000000008152600401610fe49061208e565b60405180910390fd5b60011515600a60149054906101000a900460ff16151514611043576040517f08c379a000000000000000000000000000000000000000000000000000000000815260040161103a90612361565b60405180910390fd5b600115158115150361106c57600b600081548092919061106290611c65565b9190505550611085565b600c600081548092919061107f90611c65565b91905055505b600280546110939190611bde565b600b5411806110b05750600280546110ab9190611bde565b600c54115b156111cc57600280546110c39190611bde565b600b54111561115e576001806000600a60009054906101000a900473ffffffffffffffffffffffffffffffffffffffff1673ffffffffffffffffffffffffffffffffffffffff1673ffffffffffffffffffffffffffffffffffffffff16815260200190815260200160002060006101000a81548160ff0219169083151502179055506002600081548092919061115890611c65565b91905055505b6000600a60006101000a81548173ffffffffffffffffffffffffffffffffffffffff021916908373ffffffffffffffffffffffffffffffffffffffff1602179055506000600a60146101000a81548160ff0219169083151502179055506000600b819055506000600c819055505b50565b6000600373__$d63b1d3c5d9b60c92d6baf33b2a688236c$__63deb3d89690916040518263ffffffff1660e01b815260040161120b91906119a8565b602060405180830381865af4158015611228573d6000803e3d6000fd5b505050506040513d601f19601f8201168201806040525081019061124c91906119fe565b905090565b600a60009054906101000a900473ffffffffffffffffffffffffffffffffffffffff1681565b6000600373__$d63b1d3c5d9b60c92d6baf33b2a688236c$__63732a2ccf9091846040518363ffffffff1660e01b81526004016112b5929190611afd565b602060405180830381865af41580156112d2573d6000803e3d6000fd5b505050506040513d601f19601f820116820180604052508101906112f691906119fe565b9050919050565b600160003373ffffffffffffffffffffffffffffffffffffffff1673ffffffffffffffffffffffffffffffffffffffff16815260200190815260200160002060009054906101000a900460ff16611389576040517f08c379a00000000000000000000000000000000000000000000000000000000081526004016113809061208e565b60405180910390fd5b600373__$d63b1d3c5d9b60c92d6baf33b2a688236c$__63bc2b405c90918385600373__$d63b1d3c5d9b60c92d6baf33b2a688236c$__63732a2ccf9091886040518363ffffffff1660e01b81526004016113e5929190611afd565b602060405180830381865af4158015611402573d6000803e3d6000fd5b505050506040513d601f19601f8201168201806040525081019061142691906119fe565b6114309190611c0f565b6040518463ffffffff1660e01b815260040161144e9392919061224c565b60006040518083038186803b15801561146657600080fd5b505af415801561147a573d6000803e3d6000fd5b505050508160008082825461148f9190611c0f565b925050819055508073ffffffffffffffffffffffffffffffffffffffff16600073ffffffffffffffffffffffffffffffffffffffff167fddf252ad1be2c89b69c2b068fc378daa952ba7f163c4a11628f55a4df523b3ef846040516114f49190611e0e565b60405180910390a35050565b60606009805461150f90612011565b80601f016020809104026020016040519081016040528092919081815260200182805461153b90612011565b80156115885780601f1061155d57610100808354040283529160200191611588565b820191906000526020600020905b81548152906001019060200180831161156b57829003601f168201915b5050505050905090565b6000600760003373ffffffffffffffffffffffffffffffffffffffff1673ffffffffffffffffffffffffffffffffffffffff16815260200190815260200160002054905090565b3381806115e583611277565b1015611626576040517f08c379a000000000000000000000000000000000000000000000000000000000815260040161161d90612166565b60405180910390fd5b600373__$d63b1d3c5d9b60c92d6baf33b2a688236c$__63bc2b405c90913386600373__$d63b1d3c5d9b60c92d6baf33b2a688236c$__63732a2ccf9091336040518363ffffffff1660e01b8152600401611682929190611afd565b602060405180830381865af415801561169f573d6000803e3d6000fd5b505050506040513d601f19601f820116820180604052508101906116c391906119fe565b6116cd9190612218565b6040518463ffffffff1660e01b81526004016116eb9392919061224c565b60006040518083038186803b15801561170357600080fd5b505af4158015611717573d6000803e3d6000fd5b50505050600373__$d63b1d3c5d9b60c92d6baf33b2a688236c$__63bc2b405c90918686600373__$d63b1d3c5d9b60c92d6baf33b2a688236c$__63732a2ccf90918b6040518363ffffffff1660e01b8152600401611777929190611afd565b602060405180830381865af4158015611794573d6000803e3d6000fd5b505050506040513d601f19601f820116820180604052508101906117b891906119fe565b6117c29190611c0f565b6040518463ffffffff1660e01b81526004016117e09392919061224c565b60006040518083038186803b1580156117f857600080fd5b505af415801561180c573d6000803e3d6000fd5b505050508373ffffffffffffffffffffffffffffffffffffffff163373ffffffffffffffffffffffffffffffffffffffff167fddf252ad1be2c89b69c2b068fc378daa952ba7f163c4a11628f55a4df523b3ef8560405161186d9190611e0e565b60405180910390a350505050565b60025481565b6000600373__$d63b1d3c5d9b60c92d6baf33b2a688236c$__63d1aa9e7e9091846040518363ffffffff1660e01b81526004016118bf929190611a3a565b602060405180830381865af41580156118dc573d6000803e3d6000fd5b505050506040513d601f19601f820116820180604052508101906119009190611ac1565b9050919050565b6000600d60008473ffffffffffffffffffffffffffffffffffffffff1673ffffffffffffffffffffffffffffffffffffffff16815260200190815260200160002060008373ffffffffffffffffffffffffffffffffffffffff1673ffffffffffffffffffffffffffffffffffffffff16815260200190815260200160002054905092915050565b600a60149054906101000a900460ff1681565b8082525050565b60006020820190506119bd60008301846119a1565b92915050565b600080fd5b6000819050919050565b6119db816119c8565b81146119e657600080fd5b50565b6000815190506119f8816119d2565b92915050565b600060208284031215611a1457611a136119c3565b5b6000611a22848285016119e9565b91505092915050565b611a34816119c8565b82525050565b6000604082019050611a4f60008301856119a1565b611a5c6020830184611a2b565b9392505050565b600073ffffffffffffffffffffffffffffffffffffffff82169050919050565b6000611a8e82611a63565b9050919050565b611a9e81611a83565b8114611aa957600080fd5b50565b600081519050611abb81611a95565b92915050565b600060208284031215611ad757611ad66119c3565b5b6000611ae584828501611aac565b91505092915050565b611af781611a83565b82525050565b6000604082019050611b1260008301856119a1565b611b1f6020830184611aee565b9392505050565b7f4e487b7100000000000000000000000000000000000000000000000000000000600052601160045260246000fd5b6000611b60826119c8565b9150611b6b836119c8565b9250817fffffffffffffffffffffffffffffffffffffffffffffffffffffffffffffffff0483118215151615611ba457611ba3611b26565b5b828202905092915050565b7f4e487b7100000000000000000000000000000000000000000000000000000000600052601260045260246000fd5b6000611be9826119c8565b9150611bf4836119c8565b925082611c0457611c03611baf565b5b828204905092915050565b6000611c1a826119c8565b9150611c25836119c8565b9250827fffffffffffffffffffffffffffffffffffffffffffffffffffffffffffffffff03821115611c5a57611c59611b26565b5b828201905092915050565b6000611c70826119c8565b91507fffffffffffffffffffffffffffffffffffffffffffffffffffffffffffffffff8203611ca257611ca1611b26565b5b600182019050919050565b600081519050919050565b600082825260208201905092915050565b60005b83811015611ce7578082015181840152602081019050611ccc565b83811115611cf6576000848401525b50505050565b6000601f19601f8301169050919050565b6000611d1882611cad565b611d228185611cb8565b9350611d32818560208601611cc9565b611d3b81611cfc565b840191505092915050565b60006020820190508181036000830152611d608184611d0d565b905092915050565b600081359050611d7781611a95565b92915050565b600060208284031215611d9357611d926119c3565b5b6000611da184828501611d68565b91505092915050565b600081359050611db9816119d2565b92915050565b60008060408385031215611dd657611dd56119c3565b5b6000611de485828601611d68565b9250506020611df585828601611daa565b9150509250929050565b611e08816119c8565b82525050565b6000602082019050611e236000830184611dff565b92915050565b600080600060608486031215611e4257611e416119c3565b5b6000611e5086828701611d68565b9350506020611e6186828701611d68565b9250506040611e7286828701611daa565b9150509250925092565b600060208284031215611e9257611e916119c3565b5b6000611ea084828501611daa565b91505092915050565b60008115159050919050565b611ebe81611ea9565b8114611ec957600080fd5b50565b600081359050611edb81611eb5565b92915050565b600060208284031215611ef757611ef66119c3565b5b6000611f0584828501611ecc565b91505092915050565b611f1781611a83565b82525050565b6000602082019050611f326000830184611f0e565b92915050565b60008060408385031215611f4f57611f4e6119c3565b5b6000611f5d85828601611daa565b9250506020611f6e85828601611d68565b9150509250929050565b60008060408385031215611f8f57611f8e6119c3565b5b6000611f9d85828601611d68565b9250506020611fae85828601611d68565b9150509250929050565b611fc181611ea9565b82525050565b6000602082019050611fdc6000830184611fb8565b92915050565b7f4e487b7100000000000000000000000000000000000000000000000000000000600052602260045260246000fd5b6000600282049050600182168061202957607f821691505b60208210810361203c5761203b611fe2565b5b50919050565b7f4e6f7420616e64206f776e657200000000000000000000000000000000000000600082015250565b6000612078600d83611cb8565b915061208382612042565b602082019050919050565b600060208201905081810360008301526120a78161206b565b9050919050565b7f54686520766f74696e6720697320737461727465640000000000000000000000600082015250565b60006120e4601583611cb8565b91506120ef826120ae565b602082019050919050565b60006020820190508181036000830152612113816120d7565b9050919050565b7f4e6f7420656e6f75676820746f6b656e73000000000000000000000000000000600082015250565b6000612150601183611cb8565b915061215b8261211a565b602082019050919050565b6000602082019050818103600083015261217f81612143565b9050919050565b7f596f752063616e2774207472616e73666572207468697320616d6f756e74206f60008201527f6620746f6b656e73000000000000000000000000000000000000000000000000602082015250565b60006121e2602883611cb8565b91506121ed82612186565b604082019050919050565b60006020820190508181036000830152612211816121d5565b9050919050565b6000612223826119c8565b915061222e836119c8565b92508282101561224157612240611b26565b5b828203905092915050565b600060608201905061226160008301866119a1565b61226e6020830185611aee565b61227b6040830184611a2b565b949350505050565b7f4e6f7420656e6f75676820746f6b656e73206f6e20776974686472617720626160008201527f6c616e6365000000000000000000000000000000000000000000000000000000602082015250565b60006122df602583611cb8565b91506122ea82612283565b604082019050919050565b6000602082019050818103600083015261230e816122d2565b9050919050565b7f566f74696e672069736e27742073746172746564000000000000000000000000600082015250565b600061234b601483611cb8565b915061235682612315565b602082019050919050565b6000602082019050818103600083015261237a8161233e565b905091905056fea264697066735822122098ea313d7c4634bebdc7394aea254d63d946357582f81eaa0db24d2e527c50fa64736f6c634300080d0033",
  "linkReferences": {
    "contracts/itMaps.sol": {
      "IterableMapping": [
        {
          "length": 20,
          "start": 467
        },
        {
          "length": 20,
          "start": 499
        },
        {
          "length": 20,
          "start": 2149
        },
        {
          "length": 20,
          "start": 2281
        },
        {
          "length": 20,
          "start": 2411
        },
        {
          "length": 20,
          "start": 4550
        },
        {
          "length": 20,
          "start": 4582
        },
        {
          "length": 20,
          "start": 4795
        },
        {
          "length": 20,
          "start": 4827
        },
        {
          "length": 20,
          "start": 5364
        },
        {
          "length": 20,
          "start": 5396
        },
        {
          "length": 20,
          "start": 6417
        },
        {
          "length": 20,
          "start": 6585
        },
        {
          "length": 20,
          "start": 6857
        },
        {
          "length": 20,
          "start": 6889
        },
        {
          "length": 20,
          "start": 7526
        },
        {
          "length": 20,
          "start": 7558
        },
        {
          "length": 20,
          "start": 7771
        },
        {
          "length": 20,
          "start": 7803
        },
        {
          "length": 20,
          "start": 8131
        }
      ]
    }
  },
  "deployedLinkReferences": {
    "contracts/itMaps.sol": {
      "IterableMapping": [
        {
          "length": 20,
          "start": 297
        },
        {
          "length": 20,
          "start": 429
        },
        {
          "length": 20,
          "start": 559
        },
        {
          "length": 20,
          "start": 2698
        },
        {
          "length": 20,
          "start": 2730
        },
        {
          "length": 20,
          "start": 2943
        },
        {
          "length": 20,
          "start": 2975
        },
        {
          "length": 20,
          "start": 3512
        },
        {
          "length": 20,
          "start": 3544
        },
        {
          "length": 20,
          "start": 4565
        },
        {
          "length": 20,
          "start": 4733
        },
        {
          "length": 20,
          "start": 5005
        },
        {
          "length": 20,
          "start": 5037
        },
        {
          "length": 20,
          "start": 5674
        },
        {
          "length": 20,
          "start": 5706
        },
        {
          "length": 20,
          "start": 5919
        },
        {
          "length": 20,
          "start": 5951
        },
        {
          "length": 20,
          "start": 6279
        }
      ]
    }
  }
}