{
  "_format": "hh-sol-artifact-1",
  "contractName": "Token",
  "sourceName": "contracts/Token.sol",
  "abi": [
    {
      "inputs": [],
      "stateMutability": "nonpayable",
      "type": "constructor"
    },
    {
      "anonymous": false,
      "inputs": [
        {
          "indexed": true,
          "internalType": "address",
          "name": "from",
          "type": "address"
        },
        {
          "indexed": true,
          "internalType": "address",
          "name": "to",
          "type": "address"
        },
        {
          "indexed": false,
          "internalType": "uint256",
          "name": "amount",
          "type": "uint256"
        }
      ],
      "name": "Transfer",
      "type": "event"
    },
    {
      "inputs": [
        {
          "internalType": "address",
          "name": "account",
          "type": "address"
        }
      ],
      "name": "balanceOf",
      "outputs": [
        {
          "internalType": "uint256",
          "name": "",
          "type": "uint256"
        }
      ],
      "stateMutability": "view",
      "type": "function"
    },
    {
      "inputs": [],
      "name": "candidate",
      "outputs": [
        {
          "internalType": "address",
          "name": "",
          "type": "address"
        }
      ],
      "stateMutability": "view",
      "type": "function"
    },
    {
      "inputs": [],
      "name": "checkWithdrawBalance",
      "outputs": [
        {
          "internalType": "uint256",
          "name": "",
          "type": "uint256"
        }
      ],
      "stateMutability": "view",
      "type": "function"
    },
    {
      "inputs": [],
      "name": "decimals",
      "outputs": [
        {
          "internalType": "uint256",
          "name": "",
          "type": "uint256"
        }
      ],
      "stateMutability": "pure",
      "type": "function"
    },
    {
      "inputs": [
        {
          "internalType": "uint256",
          "name": "amount",
          "type": "uint256"
        },
        {
          "internalType": "address",
          "name": "_to",
          "type": "address"
        }
      ],
      "name": "mint",
      "outputs": [],
      "stateMutability": "nonpayable",
      "type": "function"
    },
    {
      "inputs": [],
      "name": "name",
      "outputs": [
        {
          "internalType": "string",
          "name": "",
          "type": "string"
        }
      ],
      "stateMutability": "view",
      "type": "function"
    },
    {
      "inputs": [],
      "name": "ownersCount",
      "outputs": [
        {
          "internalType": "uint256",
          "name": "",
          "type": "uint256"
        }
      ],
      "stateMutability": "view",
      "type": "function"
    },
    {
      "inputs": [
        {
          "internalType": "address",
          "name": "_new",
          "type": "address"
        }
      ],
      "name": "setCandidate",
      "outputs": [],
      "stateMutability": "nonpayable",
      "type": "function"
    },
    {
      "inputs": [],
      "name": "symbol",
      "outputs": [
        {
          "internalType": "string",
          "name": "",
          "type": "string"
        }
      ],
      "stateMutability": "view",
      "type": "function"
    },
    {
      "inputs": [],
      "name": "totalSupply",
      "outputs": [
        {
          "internalType": "uint256",
          "name": "",
          "type": "uint256"
        }
      ],
      "stateMutability": "view",
      "type": "function"
    },
    {
      "inputs": [
        {
          "internalType": "address",
          "name": "to",
          "type": "address"
        },
        {
          "internalType": "uint256",
          "name": "amount",
          "type": "uint256"
        }
      ],
      "name": "transfer",
      "outputs": [],
      "stateMutability": "nonpayable",
      "type": "function"
    },
    {
      "inputs": [
        {
          "internalType": "address",
          "name": "sender",
          "type": "address"
        },
        {
          "internalType": "address",
          "name": "recepient",
          "type": "address"
        },
        {
          "internalType": "uint256",
          "name": "amount",
          "type": "uint256"
        }
      ],
      "name": "transferFrom",
      "outputs": [],
      "stateMutability": "nonpayable",
      "type": "function"
    },
    {
      "inputs": [
        {
          "internalType": "bool",
          "name": "_choose",
          "type": "bool"
        }
      ],
      "name": "vote",
      "outputs": [],
      "stateMutability": "nonpayable",
      "type": "function"
    },
    {
      "inputs": [],
      "name": "voting",
      "outputs": [
        {
          "internalType": "bool",
          "name": "",
          "type": "bool"
        }
      ],
      "stateMutability": "view",
      "type": "function"
    },
    {
      "inputs": [
        {
          "internalType": "uint256",
          "name": "_amount",
          "type": "uint256"
        }
      ],
      "name": "withdraw",
      "outputs": [],
      "stateMutability": "nonpayable",
      "type": "function"
    },
    {
      "stateMutability": "payable",
      "type": "receive"
    }
  ],
  "bytecode": "0x60806040526040518060400160405280601481526020017f466f75727468204976617369756b20546f6b656e000000000000000000000000815250600890805190602001906200005192919062000355565b506040518060400160405280600481526020017f4956533300000000000000000000000000000000000000000000000000000000815250600990805190602001906200009f92919062000355565b50348015620000ad57600080fd5b5060018060003373ffffffffffffffffffffffffffffffffffffffff1673ffffffffffffffffffffffffffffffffffffffff16815260200190815260200160002060006101000a81548160ff021916908315150217905550600260008154809291906200011a906200043e565b91905055506200013a6801158e460913d00000336200014060201b60201c565b6200072c565b600160003373ffffffffffffffffffffffffffffffffffffffff1673ffffffffffffffffffffffffffffffffffffffff16815260200190815260200160002060009054906101000a900460ff16620001cf576040517f08c379a0000000000000000000000000000000000000000000000000000000008152600401620001c690620004ec565b60405180910390fd5b600373__$d63b1d3c5d9b60c92d6baf33b2a688236c$__63bc2b405c90918385600373__$d63b1d3c5d9b60c92d6baf33b2a688236c$__63732a2ccf9091886040518363ffffffff1660e01b81526004016200022d9291906200055a565b602060405180830381865af41580156200024b573d6000803e3d6000fd5b505050506040513d601f19601f82011682018060405250810190620002719190620005bd565b6200027d9190620005ef565b6040518463ffffffff1660e01b81526004016200029d939291906200065d565b60006040518083038186803b158015620002b657600080fd5b505af4158015620002cb573d6000803e3d6000fd5b5050505081600080828254620002e29190620005ef565b925050819055508073ffffffffffffffffffffffffffffffffffffffff16600073ffffffffffffffffffffffffffffffffffffffff167fddf252ad1be2c89b69c2b068fc378daa952ba7f163c4a11628f55a4df523b3ef84604051620003499190620006ab565b60405180910390a35050565b8280546200036390620006f7565b90600052602060002090601f016020900481019282620003875760008555620003d3565b82601f10620003a257805160ff1916838001178555620003d3565b82800160010185558215620003d3579182015b82811115620003d2578251825591602001919060010190620003b5565b5b509050620003e29190620003e6565b5090565b5b8082111562000401576000816000905550600101620003e7565b5090565b7f4e487b7100000000000000000000000000000000000000000000000000000000600052601160045260246000fd5b6000819050919050565b60006200044b8262000434565b91507fffffffffffffffffffffffffffffffffffffffffffffffffffffffffffffffff820362000480576200047f62000405565b5b600182019050919050565b600082825260208201905092915050565b7f4e6f7420616e64206f776e657200000000000000000000000000000000000000600082015250565b6000620004d4600d836200048b565b9150620004e1826200049c565b602082019050919050565b600060208201905081810360008301526200050781620004c5565b9050919050565b8082525050565b600073ffffffffffffffffffffffffffffffffffffffff82169050919050565b6000620005428262000515565b9050919050565b620005548162000535565b82525050565b60006040820190506200057160008301856200050e565b62000580602083018462000549565b9392505050565b600080fd5b620005978162000434565b8114620005a357600080fd5b50565b600081519050620005b7816200058c565b92915050565b600060208284031215620005d657620005d562000587565b5b6000620005e684828501620005a6565b91505092915050565b6000620005fc8262000434565b9150620006098362000434565b9250827fffffffffffffffffffffffffffffffffffffffffffffffffffffffffffffffff0382111562000641576200064062000405565b5b828201905092915050565b620006578162000434565b82525050565b60006060820190506200067460008301866200050e565b62000683602083018562000549565b6200069260408301846200064c565b949350505050565b620006a58162000434565b82525050565b6000602082019050620006c260008301846200069a565b92915050565b7f4e487b7100000000000000000000000000000000000000000000000000000000600052602260045260246000fd5b600060028204905060018216806200071057607f821691505b602082108103620007265762000725620006c8565b5b50919050565b611e85806200073c6000396000f3fe6080604052600436106100ec5760003560e01c80636c8381f81161008a5780639eda1ca0116100595780639eda1ca0146104e2578063a9059cbb1461050d578063b948854614610536578063fce1ccca14610561576102fc565b80636c8381f81461042657806370a082311461045157806394bf804d1461048e57806395d89b41146104b7576102fc565b806323b872dd116100c657806323b872dd146103805780632e1a7d4d146103a9578063313ce567146103d25780634b9f5c98146103fd576102fc565b806306fdde031461030157806307880b7f1461032c57806318160ddd14610355576102fc565b366102fc57600034905060005b600373__$d63b1d3c5d9b60c92d6baf33b2a688236c$__63deb3d89690916040518263ffffffff1660e01b81526004016101339190611548565b602060405180830381865af4158015610150573d6000803e3d6000fd5b505050506040513d601f19601f82011682018060405250810190610174919061159e565b8110156102fa576000600373__$d63b1d3c5d9b60c92d6baf33b2a688236c$__63d1aa9e7e9091846040518363ffffffff1660e01b81526004016101b99291906115da565b602060405180830381865af41580156101d6573d6000803e3d6000fd5b505050506040513d601f19601f820116820180604052508101906101fa9190611661565b9050600054600373__$d63b1d3c5d9b60c92d6baf33b2a688236c$__63732a2ccf9091846040518363ffffffff1660e01b815260040161023b92919061169d565b602060405180830381865af4158015610258573d6000803e3d6000fd5b505050506040513d601f19601f8201168201806040525081019061027c919061159e565b8461028791906116f5565b610291919061177e565b600760008373ffffffffffffffffffffffffffffffffffffffff1673ffffffffffffffffffffffffffffffffffffffff16815260200190815260200160002060008282546102df91906117af565b925050819055505080806102f290611805565b9150506100f9565b005b600080fd5b34801561030d57600080fd5b5061031661058c565b60405161032391906118e6565b60405180910390f35b34801561033857600080fd5b50610353600480360381019061034e919061191d565b61061e565b005b34801561036157600080fd5b5061036a61075f565b6040516103779190611959565b60405180910390f35b34801561038c57600080fd5b506103a760048036038101906103a29190611989565b610768565b005b3480156103b557600080fd5b506103d060048036038101906103cb91906119dc565b610a0b565b005b3480156103de57600080fd5b506103e7610c87565b6040516103f49190611959565b60405180910390f35b34801561040957600080fd5b50610424600480360381019061041f9190611a41565b610c90565b005b34801561043257600080fd5b5061043b610efe565b6040516104489190611a7d565b60405180910390f35b34801561045d57600080fd5b506104786004803603810190610473919061191d565b610f24565b6040516104859190611959565b60405180910390f35b34801561049a57600080fd5b506104b560048036038101906104b09190611a98565b610faa565b005b3480156104c357600080fd5b506104cc6111ad565b6040516104d991906118e6565b60405180910390f35b3480156104ee57600080fd5b506104f761123f565b6040516105049190611959565b60405180910390f35b34801561051957600080fd5b50610534600480360381019061052f9190611ad8565b611286565b005b34801561054257600080fd5b5061054b611528565b6040516105589190611959565b60405180910390f35b34801561056d57600080fd5b5061057661152e565b6040516105839190611b27565b60405180910390f35b60606008805461059b90611b71565b80601f01602080910402602001604051908101604052809291908181526020018280546105c790611b71565b80156106145780601f106105e957610100808354040283529160200191610614565b820191906000526020600020905b8154815290600101906020018083116105f757829003601f168201915b5050505050905090565b600160003373ffffffffffffffffffffffffffffffffffffffff1673ffffffffffffffffffffffffffffffffffffffff16815260200190815260200160002060009054906101000a900460ff166106aa576040517f08c379a00000000000000000000000000000000000000000000000000000000081526004016106a190611bee565b60405180910390fd5b60001515600a60149054906101000a900460ff16151514610700576040517f08c379a00000000000000000000000000000000000000000000000000000000081526004016106f790611c5a565b60405180910390fd5b6001600a60146101000a81548160ff02191690831515021790555080600a60006101000a81548173ffffffffffffffffffffffffffffffffffffffff021916908373ffffffffffffffffffffffffffffffffffffffff16021790555050565b60008054905090565b82818061077483610f24565b10156107b5576040517f08c379a00000000000000000000000000000000000000000000000000000000081526004016107ac90611cc6565b60405180910390fd5b600373__$d63b1d3c5d9b60c92d6baf33b2a688236c$__63bc2b405c90918786600373__$d63b1d3c5d9b60c92d6baf33b2a688236c$__63732a2ccf90918c6040518363ffffffff1660e01b815260040161081192919061169d565b602060405180830381865af415801561082e573d6000803e3d6000fd5b505050506040513d601f19601f82011682018060405250810190610852919061159e565b61085c9190611ce6565b6040518463ffffffff1660e01b815260040161087a93929190611d1a565b60006040518083038186803b15801561089257600080fd5b505af41580156108a6573d6000803e3d6000fd5b50505050600373__$d63b1d3c5d9b60c92d6baf33b2a688236c$__63bc2b405c90918686600373__$d63b1d3c5d9b60c92d6baf33b2a688236c$__63732a2ccf90918b6040518363ffffffff1660e01b815260040161090692919061169d565b602060405180830381865af4158015610923573d6000803e3d6000fd5b505050506040513d601f19601f82011682018060405250810190610947919061159e565b61095191906117af565b6040518463ffffffff1660e01b815260040161096f93929190611d1a565b60006040518083038186803b15801561098757600080fd5b505af415801561099b573d6000803e3d6000fd5b505050508373ffffffffffffffffffffffffffffffffffffffff168573ffffffffffffffffffffffffffffffffffffffff167fddf252ad1be2c89b69c2b068fc378daa952ba7f163c4a11628f55a4df523b3ef856040516109fc9190611959565b60405180910390a35050505050565b80600760003373ffffffffffffffffffffffffffffffffffffffff1673ffffffffffffffffffffffffffffffffffffffff168152602001908152602001600020541015610a8d576040517f08c379a0000000000000000000000000000000000000000000000000000000008152600401610a8490611dc3565b60405180910390fd5b80600760003373ffffffffffffffffffffffffffffffffffffffff1673ffffffffffffffffffffffffffffffffffffffff1681526020019081526020016000206000828254610adc9190611ce6565b92505081905550600373__$d63b1d3c5d9b60c92d6baf33b2a688236c$__63bc2b405c90913384600373__$d63b1d3c5d9b60c92d6baf33b2a688236c$__63732a2ccf9091336040518363ffffffff1660e01b8152600401610b3f92919061169d565b602060405180830381865af4158015610b5c573d6000803e3d6000fd5b505050506040513d601f19601f82011682018060405250810190610b80919061159e565b610b8a91906117af565b6040518463ffffffff1660e01b8152600401610ba893929190611d1a565b60006040518083038186803b158015610bc057600080fd5b505af4158015610bd4573d6000803e3d6000fd5b505050503373ffffffffffffffffffffffffffffffffffffffff166108fc829081150290604051600060405180830381858888f19350505050158015610c1e573d6000803e3d6000fd5b503373ffffffffffffffffffffffffffffffffffffffff163073ffffffffffffffffffffffffffffffffffffffff167fddf252ad1be2c89b69c2b068fc378daa952ba7f163c4a11628f55a4df523b3ef83604051610c7c9190611959565b60405180910390a350565b60006012905090565b600160003373ffffffffffffffffffffffffffffffffffffffff1673ffffffffffffffffffffffffffffffffffffffff16815260200190815260200160002060009054906101000a900460ff16610d1c576040517f08c379a0000000000000000000000000000000000000000000000000000000008152600401610d1390611bee565b60405180910390fd5b60011515600a60149054906101000a900460ff16151514610d72576040517f08c379a0000000000000000000000000000000000000000000000000000000008152600401610d6990611e2f565b60405180910390fd5b6001151581151503610d9b57600b6000815480929190610d9190611805565b9190505550610db4565b600c6000815480929190610dae90611805565b91905055505b60028054610dc2919061177e565b600b541180610ddf575060028054610dda919061177e565b600c54115b15610efb5760028054610df2919061177e565b600b541115610e8d576001806000600a60009054906101000a900473ffffffffffffffffffffffffffffffffffffffff1673ffffffffffffffffffffffffffffffffffffffff1673ffffffffffffffffffffffffffffffffffffffff16815260200190815260200160002060006101000a81548160ff02191690831515021790555060026000815480929190610e8790611805565b91905055505b6000600a60006101000a81548173ffffffffffffffffffffffffffffffffffffffff021916908373ffffffffffffffffffffffffffffffffffffffff1602179055506000600a60146101000a81548160ff0219169083151502179055506000600b819055506000600c819055505b50565b600a60009054906101000a900473ffffffffffffffffffffffffffffffffffffffff1681565b6000600373__$d63b1d3c5d9b60c92d6baf33b2a688236c$__63732a2ccf9091846040518363ffffffff1660e01b8152600401610f6292919061169d565b602060405180830381865af4158015610f7f573d6000803e3d6000fd5b505050506040513d601f19601f82011682018060405250810190610fa3919061159e565b9050919050565b600160003373ffffffffffffffffffffffffffffffffffffffff1673ffffffffffffffffffffffffffffffffffffffff16815260200190815260200160002060009054906101000a900460ff16611036576040517f08c379a000000000000000000000000000000000000000000000000000000000815260040161102d90611bee565b60405180910390fd5b600373__$d63b1d3c5d9b60c92d6baf33b2a688236c$__63bc2b405c90918385600373__$d63b1d3c5d9b60c92d6baf33b2a688236c$__63732a2ccf9091886040518363ffffffff1660e01b815260040161109292919061169d565b602060405180830381865af41580156110af573d6000803e3d6000fd5b505050506040513d601f19601f820116820180604052508101906110d3919061159e565b6110dd91906117af565b6040518463ffffffff1660e01b81526004016110fb93929190611d1a565b60006040518083038186803b15801561111357600080fd5b505af4158015611127573d6000803e3d6000fd5b505050508160008082825461113c91906117af565b925050819055508073ffffffffffffffffffffffffffffffffffffffff16600073ffffffffffffffffffffffffffffffffffffffff167fddf252ad1be2c89b69c2b068fc378daa952ba7f163c4a11628f55a4df523b3ef846040516111a19190611959565b60405180910390a35050565b6060600980546111bc90611b71565b80601f01602080910402602001604051908101604052809291908181526020018280546111e890611b71565b80156112355780601f1061120a57610100808354040283529160200191611235565b820191906000526020600020905b81548152906001019060200180831161121857829003601f168201915b5050505050905090565b6000600760003373ffffffffffffffffffffffffffffffffffffffff1673ffffffffffffffffffffffffffffffffffffffff16815260200190815260200160002054905090565b33818061129283610f24565b10156112d3576040517f08c379a00000000000000000000000000000000000000000000000000000000081526004016112ca90611cc6565b60405180910390fd5b600373__$d63b1d3c5d9b60c92d6baf33b2a688236c$__63bc2b405c90913386600373__$d63b1d3c5d9b60c92d6baf33b2a688236c$__63732a2ccf9091336040518363ffffffff1660e01b815260040161132f92919061169d565b602060405180830381865af415801561134c573d6000803e3d6000fd5b505050506040513d601f19601f82011682018060405250810190611370919061159e565b61137a9190611ce6565b6040518463ffffffff1660e01b815260040161139893929190611d1a565b60006040518083038186803b1580156113b057600080fd5b505af41580156113c4573d6000803e3d6000fd5b50505050600373__$d63b1d3c5d9b60c92d6baf33b2a688236c$__63bc2b405c90918686600373__$d63b1d3c5d9b60c92d6baf33b2a688236c$__63732a2ccf90918b6040518363ffffffff1660e01b815260040161142492919061169d565b602060405180830381865af4158015611441573d6000803e3d6000fd5b505050506040513d601f19601f82011682018060405250810190611465919061159e565b61146f91906117af565b6040518463ffffffff1660e01b815260040161148d93929190611d1a565b60006040518083038186803b1580156114a557600080fd5b505af41580156114b9573d6000803e3d6000fd5b505050508373ffffffffffffffffffffffffffffffffffffffff163373ffffffffffffffffffffffffffffffffffffffff167fddf252ad1be2c89b69c2b068fc378daa952ba7f163c4a11628f55a4df523b3ef8560405161151a9190611959565b60405180910390a350505050565b60025481565b600a60149054906101000a900460ff1681565b8082525050565b600060208201905061155d6000830184611541565b92915050565b600080fd5b6000819050919050565b61157b81611568565b811461158657600080fd5b50565b60008151905061159881611572565b92915050565b6000602082840312156115b4576115b3611563565b5b60006115c284828501611589565b91505092915050565b6115d481611568565b82525050565b60006040820190506115ef6000830185611541565b6115fc60208301846115cb565b9392505050565b600073ffffffffffffffffffffffffffffffffffffffff82169050919050565b600061162e82611603565b9050919050565b61163e81611623565b811461164957600080fd5b50565b60008151905061165b81611635565b92915050565b60006020828403121561167757611676611563565b5b60006116858482850161164c565b91505092915050565b61169781611623565b82525050565b60006040820190506116b26000830185611541565b6116bf602083018461168e565b9392505050565b7f4e487b7100000000000000000000000000000000000000000000000000000000600052601160045260246000fd5b600061170082611568565b915061170b83611568565b9250817fffffffffffffffffffffffffffffffffffffffffffffffffffffffffffffffff0483118215151615611744576117436116c6565b5b828202905092915050565b7f4e487b7100000000000000000000000000000000000000000000000000000000600052601260045260246000fd5b600061178982611568565b915061179483611568565b9250826117a4576117a361174f565b5b828204905092915050565b60006117ba82611568565b91506117c583611568565b9250827fffffffffffffffffffffffffffffffffffffffffffffffffffffffffffffffff038211156117fa576117f96116c6565b5b828201905092915050565b600061181082611568565b91507fffffffffffffffffffffffffffffffffffffffffffffffffffffffffffffffff8203611842576118416116c6565b5b600182019050919050565b600081519050919050565b600082825260208201905092915050565b60005b8381101561188757808201518184015260208101905061186c565b83811115611896576000848401525b50505050565b6000601f19601f8301169050919050565b60006118b88261184d565b6118c28185611858565b93506118d2818560208601611869565b6118db8161189c565b840191505092915050565b6000602082019050818103600083015261190081846118ad565b905092915050565b60008135905061191781611635565b92915050565b60006020828403121561193357611932611563565b5b600061194184828501611908565b91505092915050565b61195381611568565b82525050565b600060208201905061196e600083018461194a565b92915050565b60008135905061198381611572565b92915050565b6000806000606084860312156119a2576119a1611563565b5b60006119b086828701611908565b93505060206119c186828701611908565b92505060406119d286828701611974565b9150509250925092565b6000602082840312156119f2576119f1611563565b5b6000611a0084828501611974565b91505092915050565b60008115159050919050565b611a1e81611a09565b8114611a2957600080fd5b50565b600081359050611a3b81611a15565b92915050565b600060208284031215611a5757611a56611563565b5b6000611a6584828501611a2c565b91505092915050565b611a7781611623565b82525050565b6000602082019050611a926000830184611a6e565b92915050565b60008060408385031215611aaf57611aae611563565b5b6000611abd85828601611974565b9250506020611ace85828601611908565b9150509250929050565b60008060408385031215611aef57611aee611563565b5b6000611afd85828601611908565b9250506020611b0e85828601611974565b9150509250929050565b611b2181611a09565b82525050565b6000602082019050611b3c6000830184611b18565b92915050565b7f4e487b7100000000000000000000000000000000000000000000000000000000600052602260045260246000fd5b60006002820490506001821680611b8957607f821691505b602082108103611b9c57611b9b611b42565b5b50919050565b7f4e6f7420616e64206f776e657200000000000000000000000000000000000000600082015250565b6000611bd8600d83611858565b9150611be382611ba2565b602082019050919050565b60006020820190508181036000830152611c0781611bcb565b9050919050565b7f54686520766f74696e6720697320737461727465640000000000000000000000600082015250565b6000611c44601583611858565b9150611c4f82611c0e565b602082019050919050565b60006020820190508181036000830152611c7381611c37565b9050919050565b7f4e6f7420656e6f75676820746f6b656e73000000000000000000000000000000600082015250565b6000611cb0601183611858565b9150611cbb82611c7a565b602082019050919050565b60006020820190508181036000830152611cdf81611ca3565b9050919050565b6000611cf182611568565b9150611cfc83611568565b925082821015611d0f57611d0e6116c6565b5b828203905092915050565b6000606082019050611d2f6000830186611541565b611d3c602083018561168e565b611d4960408301846115cb565b949350505050565b7f4e6f7420656e6f75676820746f6b656e73206f6e20776974686472617720626160008201527f6c616e6365000000000000000000000000000000000000000000000000000000602082015250565b6000611dad602583611858565b9150611db882611d51565b604082019050919050565b60006020820190508181036000830152611ddc81611da0565b9050919050565b7f566f74696e672069736e27742073746172746564000000000000000000000000600082015250565b6000611e19601483611858565b9150611e2482611de3565b602082019050919050565b60006020820190508181036000830152611e4881611e0c565b905091905056fea2646970667358221220da773476a2fcdc6369d6a5521c19a20ec5fb07de14ed708061aafbc8ae9b360864736f6c634300080d0033",
  "linkReferences": {
    "contracts/itMaps.sol": {
      "IterableMapping": [
        {
          "length": 20,
          "start": 467
        },
        {
          "length": 20,
          "start": 499
        },
        {
          "length": 20,
          "start": 2105
        },
        {
          "length": 20,
          "start": 2237
        },
        {
          "length": 20,
          "start": 2367
        },
        {
          "length": 20,
          "start": 3829
        },
        {
          "length": 20,
          "start": 3861
        },
        {
          "length": 20,
          "start": 4074
        },
        {
          "length": 20,
          "start": 4106
        },
        {
          "length": 20,
          "start": 4643
        },
        {
          "length": 20,
          "start": 4675
        },
        {
          "length": 20,
          "start": 5734
        },
        {
          "length": 20,
          "start": 6006
        },
        {
          "length": 20,
          "start": 6038
        },
        {
          "length": 20,
          "start": 6675
        },
        {
          "length": 20,
          "start": 6707
        },
        {
          "length": 20,
          "start": 6920
        },
        {
          "length": 20,
          "start": 6952
        }
      ]
    }
  },
  "deployedLinkReferences": {
    "contracts/itMaps.sol": {
      "IterableMapping": [
        {
          "length": 20,
          "start": 253
        },
        {
          "length": 20,
          "start": 385
        },
        {
          "length": 20,
          "start": 515
        },
        {
          "length": 20,
          "start": 1977
        },
        {
          "length": 20,
          "start": 2009
        },
        {
          "length": 20,
          "start": 2222
        },
        {
          "length": 20,
          "start": 2254
        },
        {
          "length": 20,
          "start": 2791
        },
        {
          "length": 20,
          "start": 2823
        },
        {
          "length": 20,
          "start": 3882
        },
        {
          "length": 20,
          "start": 4154
        },
        {
          "length": 20,
          "start": 4186
        },
        {
          "length": 20,
          "start": 4823
        },
        {
          "length": 20,
          "start": 4855
        },
        {
          "length": 20,
          "start": 5068
        },
        {
          "length": 20,
          "start": 5100
        }
      ]
    }
  }
}