{
  "_format": "hh-sol-artifact-1",
  "contractName": "Token",
  "sourceName": "contracts/Token.sol",
  "abi": [
    {
      "inputs": [],
      "stateMutability": "nonpayable",
      "type": "constructor"
    },
    {
      "anonymous": false,
      "inputs": [
        {
          "indexed": true,
          "internalType": "address",
          "name": "from",
          "type": "address"
        },
        {
          "indexed": true,
          "internalType": "address",
          "name": "to",
          "type": "address"
        },
        {
          "indexed": false,
          "internalType": "uint256",
          "name": "amount",
          "type": "uint256"
        }
      ],
      "name": "Transfer",
      "type": "event"
    },
    {
      "inputs": [
        {
          "internalType": "address",
          "name": "account",
          "type": "address"
        }
      ],
      "name": "balanceOf",
      "outputs": [
        {
          "internalType": "uint256",
          "name": "",
          "type": "uint256"
        }
      ],
      "stateMutability": "view",
      "type": "function"
    },
    {
      "inputs": [],
      "name": "candidate",
      "outputs": [
        {
          "internalType": "address",
          "name": "",
          "type": "address"
        }
      ],
      "stateMutability": "view",
      "type": "function"
    },
    {
      "inputs": [],
      "name": "checkWithdrawBalance",
      "outputs": [
        {
          "internalType": "uint256",
          "name": "",
          "type": "uint256"
        }
      ],
      "stateMutability": "view",
      "type": "function"
    },
    {
      "inputs": [],
      "name": "decimals",
      "outputs": [
        {
          "internalType": "uint256",
          "name": "",
          "type": "uint256"
        }
      ],
      "stateMutability": "pure",
      "type": "function"
    },
    {
      "inputs": [
        {
          "internalType": "uint256",
          "name": "_index",
          "type": "uint256"
        }
      ],
      "name": "getHolderByIndex",
      "outputs": [
        {
          "internalType": "address",
          "name": "",
          "type": "address"
        }
      ],
      "stateMutability": "view",
      "type": "function"
    },
    {
      "inputs": [],
      "name": "holdersCount",
      "outputs": [
        {
          "internalType": "uint256",
          "name": "",
          "type": "uint256"
        }
      ],
      "stateMutability": "view",
      "type": "function"
    },
    {
      "inputs": [
        {
          "internalType": "uint256",
          "name": "amount",
          "type": "uint256"
        },
        {
          "internalType": "address",
          "name": "_to",
          "type": "address"
        }
      ],
      "name": "mint",
      "outputs": [],
      "stateMutability": "nonpayable",
      "type": "function"
    },
    {
      "inputs": [],
      "name": "name",
      "outputs": [
        {
          "internalType": "string",
          "name": "",
          "type": "string"
        }
      ],
      "stateMutability": "view",
      "type": "function"
    },
    {
      "inputs": [],
      "name": "ownersCount",
      "outputs": [
        {
          "internalType": "uint256",
          "name": "",
          "type": "uint256"
        }
      ],
      "stateMutability": "view",
      "type": "function"
    },
    {
      "inputs": [
        {
          "internalType": "address",
          "name": "_new",
          "type": "address"
        }
      ],
      "name": "setCandidate",
      "outputs": [],
      "stateMutability": "nonpayable",
      "type": "function"
    },
    {
      "inputs": [],
      "name": "symbol",
      "outputs": [
        {
          "internalType": "string",
          "name": "",
          "type": "string"
        }
      ],
      "stateMutability": "view",
      "type": "function"
    },
    {
      "inputs": [],
      "name": "totalSupply",
      "outputs": [
        {
          "internalType": "uint256",
          "name": "",
          "type": "uint256"
        }
      ],
      "stateMutability": "view",
      "type": "function"
    },
    {
      "inputs": [
        {
          "internalType": "address",
          "name": "to",
          "type": "address"
        },
        {
          "internalType": "uint256",
          "name": "amount",
          "type": "uint256"
        }
      ],
      "name": "transfer",
      "outputs": [],
      "stateMutability": "nonpayable",
      "type": "function"
    },
    {
      "inputs": [
        {
          "internalType": "address",
          "name": "sender",
          "type": "address"
        },
        {
          "internalType": "address",
          "name": "recepient",
          "type": "address"
        },
        {
          "internalType": "uint256",
          "name": "amount",
          "type": "uint256"
        }
      ],
      "name": "transferFrom",
      "outputs": [],
      "stateMutability": "nonpayable",
      "type": "function"
    },
    {
      "inputs": [
        {
          "internalType": "bool",
          "name": "_choose",
          "type": "bool"
        }
      ],
      "name": "vote",
      "outputs": [],
      "stateMutability": "nonpayable",
      "type": "function"
    },
    {
      "inputs": [],
      "name": "voting",
      "outputs": [
        {
          "internalType": "bool",
          "name": "",
          "type": "bool"
        }
      ],
      "stateMutability": "view",
      "type": "function"
    },
    {
      "inputs": [
        {
          "internalType": "uint256",
          "name": "_amount",
          "type": "uint256"
        }
      ],
      "name": "withdraw",
      "outputs": [],
      "stateMutability": "nonpayable",
      "type": "function"
    },
    {
      "stateMutability": "payable",
      "type": "receive"
    }
  ],
  "bytecode": "0x60806040526040518060400160405280601481526020017f466f75727468204976617369756b20546f6b656e000000000000000000000000815250600890805190602001906200005192919062000355565b506040518060400160405280600481526020017f4956533300000000000000000000000000000000000000000000000000000000815250600990805190602001906200009f92919062000355565b50348015620000ad57600080fd5b5060018060003373ffffffffffffffffffffffffffffffffffffffff1673ffffffffffffffffffffffffffffffffffffffff16815260200190815260200160002060006101000a81548160ff021916908315150217905550600260008154809291906200011a906200043e565b91905055506200013a6801158e460913d00000336200014060201b60201c565b6200072c565b600160003373ffffffffffffffffffffffffffffffffffffffff1673ffffffffffffffffffffffffffffffffffffffff16815260200190815260200160002060009054906101000a900460ff16620001cf576040517f08c379a0000000000000000000000000000000000000000000000000000000008152600401620001c690620004ec565b60405180910390fd5b600373__$d63b1d3c5d9b60c92d6baf33b2a688236c$__63bc2b405c90918385600373__$d63b1d3c5d9b60c92d6baf33b2a688236c$__63732a2ccf9091886040518363ffffffff1660e01b81526004016200022d9291906200055a565b602060405180830381865af41580156200024b573d6000803e3d6000fd5b505050506040513d601f19601f82011682018060405250810190620002719190620005bd565b6200027d9190620005ef565b6040518463ffffffff1660e01b81526004016200029d939291906200065d565b60006040518083038186803b158015620002b657600080fd5b505af4158015620002cb573d6000803e3d6000fd5b5050505081600080828254620002e29190620005ef565b925050819055508073ffffffffffffffffffffffffffffffffffffffff16600073ffffffffffffffffffffffffffffffffffffffff167fddf252ad1be2c89b69c2b068fc378daa952ba7f163c4a11628f55a4df523b3ef84604051620003499190620006ab565b60405180910390a35050565b8280546200036390620006f7565b90600052602060002090601f016020900481019282620003875760008555620003d3565b82601f10620003a257805160ff1916838001178555620003d3565b82800160010185558215620003d3579182015b82811115620003d2578251825591602001919060010190620003b5565b5b509050620003e29190620003e6565b5090565b5b8082111562000401576000816000905550600101620003e7565b5090565b7f4e487b7100000000000000000000000000000000000000000000000000000000600052601160045260246000fd5b6000819050919050565b60006200044b8262000434565b91507fffffffffffffffffffffffffffffffffffffffffffffffffffffffffffffffff820362000480576200047f62000405565b5b600182019050919050565b600082825260208201905092915050565b7f4e6f7420616e64206f776e657200000000000000000000000000000000000000600082015250565b6000620004d4600d836200048b565b9150620004e1826200049c565b602082019050919050565b600060208201905081810360008301526200050781620004c5565b9050919050565b8082525050565b600073ffffffffffffffffffffffffffffffffffffffff82169050919050565b6000620005428262000515565b9050919050565b620005548162000535565b82525050565b60006040820190506200057160008301856200050e565b62000580602083018462000549565b9392505050565b600080fd5b620005978162000434565b8114620005a357600080fd5b50565b600081519050620005b7816200058c565b92915050565b600060208284031215620005d657620005d562000587565b5b6000620005e684828501620005a6565b91505092915050565b6000620005fc8262000434565b9150620006098362000434565b9250827fffffffffffffffffffffffffffffffffffffffffffffffffffffffffffffffff0382111562000641576200064062000405565b5b828201905092915050565b620006578162000434565b82525050565b60006060820190506200067460008301866200050e565b62000683602083018562000549565b6200069260408301846200064c565b949350505050565b620006a58162000434565b82525050565b6000602082019050620006c260008301846200069a565b92915050565b7f4e487b7100000000000000000000000000000000000000000000000000000000600052602260045260246000fd5b600060028204905060018216806200071057607f821691505b602082108103620007265762000725620006c8565b5b50919050565b61200b806200073c6000396000f3fe6080604052600436106101025760003560e01c80636c8381f8116100955780639eda1ca0116100645780639eda1ca014610523578063a9059cbb1461054e578063b948854614610577578063cb8106f4146105a2578063fce1ccca146105df57610312565b80636c8381f81461046757806370a082311461049257806394bf804d146104cf57806395d89b41146104f857610312565b80632e1a7d4d116100d15780632e1a7d4d146103bf578063313ce567146103e85780634b9f5c98146104135780636b4ed21b1461043c57610312565b806306fdde031461031757806307880b7f1461034257806318160ddd1461036b57806323b872dd1461039657610312565b3661031257600034905060005b600373__$d63b1d3c5d9b60c92d6baf33b2a688236c$__63deb3d89690916040518263ffffffff1660e01b815260040161014991906116ce565b602060405180830381865af4158015610166573d6000803e3d6000fd5b505050506040513d601f19601f8201168201806040525081019061018a9190611724565b811015610310576000600373__$d63b1d3c5d9b60c92d6baf33b2a688236c$__63d1aa9e7e9091846040518363ffffffff1660e01b81526004016101cf929190611760565b602060405180830381865af41580156101ec573d6000803e3d6000fd5b505050506040513d601f19601f8201168201806040525081019061021091906117e7565b9050600054600373__$d63b1d3c5d9b60c92d6baf33b2a688236c$__63732a2ccf9091846040518363ffffffff1660e01b8152600401610251929190611823565b602060405180830381865af415801561026e573d6000803e3d6000fd5b505050506040513d601f19601f820116820180604052508101906102929190611724565b8461029d919061187b565b6102a79190611904565b600760008373ffffffffffffffffffffffffffffffffffffffff1673ffffffffffffffffffffffffffffffffffffffff16815260200190815260200160002060008282546102f59190611935565b925050819055505080806103089061198b565b91505061010f565b005b600080fd5b34801561032357600080fd5b5061032c61060a565b6040516103399190611a6c565b60405180910390f35b34801561034e57600080fd5b5061036960048036038101906103649190611aa3565b61069c565b005b34801561037757600080fd5b506103806107dd565b60405161038d9190611adf565b60405180910390f35b3480156103a257600080fd5b506103bd60048036038101906103b89190611b0f565b6107e6565b005b3480156103cb57600080fd5b506103e660048036038101906103e19190611b62565b610a89565b005b3480156103f457600080fd5b506103fd610d05565b60405161040a9190611adf565b60405180910390f35b34801561041f57600080fd5b5061043a60048036038101906104359190611bc7565b610d0e565b005b34801561044857600080fd5b50610451610f7c565b60405161045e9190611adf565b60405180910390f35b34801561047357600080fd5b5061047c610ffe565b6040516104899190611c03565b60405180910390f35b34801561049e57600080fd5b506104b960048036038101906104b49190611aa3565b611024565b6040516104c69190611adf565b60405180910390f35b3480156104db57600080fd5b506104f660048036038101906104f19190611c1e565b6110aa565b005b34801561050457600080fd5b5061050d6112ad565b60405161051a9190611a6c565b60405180910390f35b34801561052f57600080fd5b5061053861133f565b6040516105459190611adf565b60405180910390f35b34801561055a57600080fd5b5061057560048036038101906105709190611c5e565b611386565b005b34801561058357600080fd5b5061058c611628565b6040516105999190611adf565b60405180910390f35b3480156105ae57600080fd5b506105c960048036038101906105c49190611b62565b61162e565b6040516105d69190611c03565b60405180910390f35b3480156105eb57600080fd5b506105f46116b4565b6040516106019190611cad565b60405180910390f35b60606008805461061990611cf7565b80601f016020809104026020016040519081016040528092919081815260200182805461064590611cf7565b80156106925780601f1061066757610100808354040283529160200191610692565b820191906000526020600020905b81548152906001019060200180831161067557829003601f168201915b5050505050905090565b600160003373ffffffffffffffffffffffffffffffffffffffff1673ffffffffffffffffffffffffffffffffffffffff16815260200190815260200160002060009054906101000a900460ff16610728576040517f08c379a000000000000000000000000000000000000000000000000000000000815260040161071f90611d74565b60405180910390fd5b60001515600a60149054906101000a900460ff1615151461077e576040517f08c379a000000000000000000000000000000000000000000000000000000000815260040161077590611de0565b60405180910390fd5b6001600a60146101000a81548160ff02191690831515021790555080600a60006101000a81548173ffffffffffffffffffffffffffffffffffffffff021916908373ffffffffffffffffffffffffffffffffffffffff16021790555050565b60008054905090565b8281806107f283611024565b1015610833576040517f08c379a000000000000000000000000000000000000000000000000000000000815260040161082a90611e4c565b60405180910390fd5b600373__$d63b1d3c5d9b60c92d6baf33b2a688236c$__63bc2b405c90918786600373__$d63b1d3c5d9b60c92d6baf33b2a688236c$__63732a2ccf90918c6040518363ffffffff1660e01b815260040161088f929190611823565b602060405180830381865af41580156108ac573d6000803e3d6000fd5b505050506040513d601f19601f820116820180604052508101906108d09190611724565b6108da9190611e6c565b6040518463ffffffff1660e01b81526004016108f893929190611ea0565b60006040518083038186803b15801561091057600080fd5b505af4158015610924573d6000803e3d6000fd5b50505050600373__$d63b1d3c5d9b60c92d6baf33b2a688236c$__63bc2b405c90918686600373__$d63b1d3c5d9b60c92d6baf33b2a688236c$__63732a2ccf90918b6040518363ffffffff1660e01b8152600401610984929190611823565b602060405180830381865af41580156109a1573d6000803e3d6000fd5b505050506040513d601f19601f820116820180604052508101906109c59190611724565b6109cf9190611935565b6040518463ffffffff1660e01b81526004016109ed93929190611ea0565b60006040518083038186803b158015610a0557600080fd5b505af4158015610a19573d6000803e3d6000fd5b505050508373ffffffffffffffffffffffffffffffffffffffff168573ffffffffffffffffffffffffffffffffffffffff167fddf252ad1be2c89b69c2b068fc378daa952ba7f163c4a11628f55a4df523b3ef85604051610a7a9190611adf565b60405180910390a35050505050565b80600760003373ffffffffffffffffffffffffffffffffffffffff1673ffffffffffffffffffffffffffffffffffffffff168152602001908152602001600020541015610b0b576040517f08c379a0000000000000000000000000000000000000000000000000000000008152600401610b0290611f49565b60405180910390fd5b80600760003373ffffffffffffffffffffffffffffffffffffffff1673ffffffffffffffffffffffffffffffffffffffff1681526020019081526020016000206000828254610b5a9190611e6c565b92505081905550600373__$d63b1d3c5d9b60c92d6baf33b2a688236c$__63bc2b405c90913384600373__$d63b1d3c5d9b60c92d6baf33b2a688236c$__63732a2ccf9091336040518363ffffffff1660e01b8152600401610bbd929190611823565b602060405180830381865af4158015610bda573d6000803e3d6000fd5b505050506040513d601f19601f82011682018060405250810190610bfe9190611724565b610c089190611935565b6040518463ffffffff1660e01b8152600401610c2693929190611ea0565b60006040518083038186803b158015610c3e57600080fd5b505af4158015610c52573d6000803e3d6000fd5b505050503373ffffffffffffffffffffffffffffffffffffffff166108fc829081150290604051600060405180830381858888f19350505050158015610c9c573d6000803e3d6000fd5b503373ffffffffffffffffffffffffffffffffffffffff163073ffffffffffffffffffffffffffffffffffffffff167fddf252ad1be2c89b69c2b068fc378daa952ba7f163c4a11628f55a4df523b3ef83604051610cfa9190611adf565b60405180910390a350565b60006012905090565b600160003373ffffffffffffffffffffffffffffffffffffffff1673ffffffffffffffffffffffffffffffffffffffff16815260200190815260200160002060009054906101000a900460ff16610d9a576040517f08c379a0000000000000000000000000000000000000000000000000000000008152600401610d9190611d74565b60405180910390fd5b60011515600a60149054906101000a900460ff16151514610df0576040517f08c379a0000000000000000000000000000000000000000000000000000000008152600401610de790611fb5565b60405180910390fd5b6001151581151503610e1957600b6000815480929190610e0f9061198b565b9190505550610e32565b600c6000815480929190610e2c9061198b565b91905055505b60028054610e409190611904565b600b541180610e5d575060028054610e589190611904565b600c54115b15610f795760028054610e709190611904565b600b541115610f0b576001806000600a60009054906101000a900473ffffffffffffffffffffffffffffffffffffffff1673ffffffffffffffffffffffffffffffffffffffff1673ffffffffffffffffffffffffffffffffffffffff16815260200190815260200160002060006101000a81548160ff02191690831515021790555060026000815480929190610f059061198b565b91905055505b6000600a60006101000a81548173ffffffffffffffffffffffffffffffffffffffff021916908373ffffffffffffffffffffffffffffffffffffffff1602179055506000600a60146101000a81548160ff0219169083151502179055506000600b819055506000600c819055505b50565b6000600373__$d63b1d3c5d9b60c92d6baf33b2a688236c$__63deb3d89690916040518263ffffffff1660e01b8152600401610fb891906116ce565b602060405180830381865af4158015610fd5573d6000803e3d6000fd5b505050506040513d601f19601f82011682018060405250810190610ff99190611724565b905090565b600a60009054906101000a900473ffffffffffffffffffffffffffffffffffffffff1681565b6000600373__$d63b1d3c5d9b60c92d6baf33b2a688236c$__63732a2ccf9091846040518363ffffffff1660e01b8152600401611062929190611823565b602060405180830381865af415801561107f573d6000803e3d6000fd5b505050506040513d601f19601f820116820180604052508101906110a39190611724565b9050919050565b600160003373ffffffffffffffffffffffffffffffffffffffff1673ffffffffffffffffffffffffffffffffffffffff16815260200190815260200160002060009054906101000a900460ff16611136576040517f08c379a000000000000000000000000000000000000000000000000000000000815260040161112d90611d74565b60405180910390fd5b600373__$d63b1d3c5d9b60c92d6baf33b2a688236c$__63bc2b405c90918385600373__$d63b1d3c5d9b60c92d6baf33b2a688236c$__63732a2ccf9091886040518363ffffffff1660e01b8152600401611192929190611823565b602060405180830381865af41580156111af573d6000803e3d6000fd5b505050506040513d601f19601f820116820180604052508101906111d39190611724565b6111dd9190611935565b6040518463ffffffff1660e01b81526004016111fb93929190611ea0565b60006040518083038186803b15801561121357600080fd5b505af4158015611227573d6000803e3d6000fd5b505050508160008082825461123c9190611935565b925050819055508073ffffffffffffffffffffffffffffffffffffffff16600073ffffffffffffffffffffffffffffffffffffffff167fddf252ad1be2c89b69c2b068fc378daa952ba7f163c4a11628f55a4df523b3ef846040516112a19190611adf565b60405180910390a35050565b6060600980546112bc90611cf7565b80601f01602080910402602001604051908101604052809291908181526020018280546112e890611cf7565b80156113355780601f1061130a57610100808354040283529160200191611335565b820191906000526020600020905b81548152906001019060200180831161131857829003601f168201915b5050505050905090565b6000600760003373ffffffffffffffffffffffffffffffffffffffff1673ffffffffffffffffffffffffffffffffffffffff16815260200190815260200160002054905090565b33818061139283611024565b10156113d3576040517f08c379a00000000000000000000000000000000000000000000000000000000081526004016113ca90611e4c565b60405180910390fd5b600373__$d63b1d3c5d9b60c92d6baf33b2a688236c$__63bc2b405c90913386600373__$d63b1d3c5d9b60c92d6baf33b2a688236c$__63732a2ccf9091336040518363ffffffff1660e01b815260040161142f929190611823565b602060405180830381865af415801561144c573d6000803e3d6000fd5b505050506040513d601f19601f820116820180604052508101906114709190611724565b61147a9190611e6c565b6040518463ffffffff1660e01b815260040161149893929190611ea0565b60006040518083038186803b1580156114b057600080fd5b505af41580156114c4573d6000803e3d6000fd5b50505050600373__$d63b1d3c5d9b60c92d6baf33b2a688236c$__63bc2b405c90918686600373__$d63b1d3c5d9b60c92d6baf33b2a688236c$__63732a2ccf90918b6040518363ffffffff1660e01b8152600401611524929190611823565b602060405180830381865af4158015611541573d6000803e3d6000fd5b505050506040513d601f19601f820116820180604052508101906115659190611724565b61156f9190611935565b6040518463ffffffff1660e01b815260040161158d93929190611ea0565b60006040518083038186803b1580156115a557600080fd5b505af41580156115b9573d6000803e3d6000fd5b505050508373ffffffffffffffffffffffffffffffffffffffff163373ffffffffffffffffffffffffffffffffffffffff167fddf252ad1be2c89b69c2b068fc378daa952ba7f163c4a11628f55a4df523b3ef8560405161161a9190611adf565b60405180910390a350505050565b60025481565b6000600373__$d63b1d3c5d9b60c92d6baf33b2a688236c$__63d1aa9e7e9091846040518363ffffffff1660e01b815260040161166c929190611760565b602060405180830381865af4158015611689573d6000803e3d6000fd5b505050506040513d601f19601f820116820180604052508101906116ad91906117e7565b9050919050565b600a60149054906101000a900460ff1681565b8082525050565b60006020820190506116e360008301846116c7565b92915050565b600080fd5b6000819050919050565b611701816116ee565b811461170c57600080fd5b50565b60008151905061171e816116f8565b92915050565b60006020828403121561173a576117396116e9565b5b60006117488482850161170f565b91505092915050565b61175a816116ee565b82525050565b600060408201905061177560008301856116c7565b6117826020830184611751565b9392505050565b600073ffffffffffffffffffffffffffffffffffffffff82169050919050565b60006117b482611789565b9050919050565b6117c4816117a9565b81146117cf57600080fd5b50565b6000815190506117e1816117bb565b92915050565b6000602082840312156117fd576117fc6116e9565b5b600061180b848285016117d2565b91505092915050565b61181d816117a9565b82525050565b600060408201905061183860008301856116c7565b6118456020830184611814565b9392505050565b7f4e487b7100000000000000000000000000000000000000000000000000000000600052601160045260246000fd5b6000611886826116ee565b9150611891836116ee565b9250817fffffffffffffffffffffffffffffffffffffffffffffffffffffffffffffffff04831182151516156118ca576118c961184c565b5b828202905092915050565b7f4e487b7100000000000000000000000000000000000000000000000000000000600052601260045260246000fd5b600061190f826116ee565b915061191a836116ee565b92508261192a576119296118d5565b5b828204905092915050565b6000611940826116ee565b915061194b836116ee565b9250827fffffffffffffffffffffffffffffffffffffffffffffffffffffffffffffffff038211156119805761197f61184c565b5b828201905092915050565b6000611996826116ee565b91507fffffffffffffffffffffffffffffffffffffffffffffffffffffffffffffffff82036119c8576119c761184c565b5b600182019050919050565b600081519050919050565b600082825260208201905092915050565b60005b83811015611a0d5780820151818401526020810190506119f2565b83811115611a1c576000848401525b50505050565b6000601f19601f8301169050919050565b6000611a3e826119d3565b611a4881856119de565b9350611a588185602086016119ef565b611a6181611a22565b840191505092915050565b60006020820190508181036000830152611a868184611a33565b905092915050565b600081359050611a9d816117bb565b92915050565b600060208284031215611ab957611ab86116e9565b5b6000611ac784828501611a8e565b91505092915050565b611ad9816116ee565b82525050565b6000602082019050611af46000830184611ad0565b92915050565b600081359050611b09816116f8565b92915050565b600080600060608486031215611b2857611b276116e9565b5b6000611b3686828701611a8e565b9350506020611b4786828701611a8e565b9250506040611b5886828701611afa565b9150509250925092565b600060208284031215611b7857611b776116e9565b5b6000611b8684828501611afa565b91505092915050565b60008115159050919050565b611ba481611b8f565b8114611baf57600080fd5b50565b600081359050611bc181611b9b565b92915050565b600060208284031215611bdd57611bdc6116e9565b5b6000611beb84828501611bb2565b91505092915050565b611bfd816117a9565b82525050565b6000602082019050611c186000830184611bf4565b92915050565b60008060408385031215611c3557611c346116e9565b5b6000611c4385828601611afa565b9250506020611c5485828601611a8e565b9150509250929050565b60008060408385031215611c7557611c746116e9565b5b6000611c8385828601611a8e565b9250506020611c9485828601611afa565b9150509250929050565b611ca781611b8f565b82525050565b6000602082019050611cc26000830184611c9e565b92915050565b7f4e487b7100000000000000000000000000000000000000000000000000000000600052602260045260246000fd5b60006002820490506001821680611d0f57607f821691505b602082108103611d2257611d21611cc8565b5b50919050565b7f4e6f7420616e64206f776e657200000000000000000000000000000000000000600082015250565b6000611d5e600d836119de565b9150611d6982611d28565b602082019050919050565b60006020820190508181036000830152611d8d81611d51565b9050919050565b7f54686520766f74696e6720697320737461727465640000000000000000000000600082015250565b6000611dca6015836119de565b9150611dd582611d94565b602082019050919050565b60006020820190508181036000830152611df981611dbd565b9050919050565b7f4e6f7420656e6f75676820746f6b656e73000000000000000000000000000000600082015250565b6000611e366011836119de565b9150611e4182611e00565b602082019050919050565b60006020820190508181036000830152611e6581611e29565b9050919050565b6000611e77826116ee565b9150611e82836116ee565b925082821015611e9557611e9461184c565b5b828203905092915050565b6000606082019050611eb560008301866116c7565b611ec26020830185611814565b611ecf6040830184611751565b949350505050565b7f4e6f7420656e6f75676820746f6b656e73206f6e20776974686472617720626160008201527f6c616e6365000000000000000000000000000000000000000000000000000000602082015250565b6000611f336025836119de565b9150611f3e82611ed7565b604082019050919050565b60006020820190508181036000830152611f6281611f26565b9050919050565b7f566f74696e672069736e27742073746172746564000000000000000000000000600082015250565b6000611f9f6014836119de565b9150611faa82611f69565b602082019050919050565b60006020820190508181036000830152611fce81611f92565b905091905056fea2646970667358221220b5ba759df79a566f00fabb1219aa2d2812c5f4ccd7854bd794122908d9f6d19f64736f6c634300080d0033",
  "linkReferences": {
    "contracts/itMaps.sol": {
      "IterableMapping": [
        {
          "length": 20,
          "start": 467
        },
        {
          "length": 20,
          "start": 499
        },
        {
          "length": 20,
          "start": 2127
        },
        {
          "length": 20,
          "start": 2259
        },
        {
          "length": 20,
          "start": 2389
        },
        {
          "length": 20,
          "start": 3955
        },
        {
          "length": 20,
          "start": 3987
        },
        {
          "length": 20,
          "start": 4200
        },
        {
          "length": 20,
          "start": 4232
        },
        {
          "length": 20,
          "start": 4769
        },
        {
          "length": 20,
          "start": 4801
        },
        {
          "length": 20,
          "start": 5822
        },
        {
          "length": 20,
          "start": 5990
        },
        {
          "length": 20,
          "start": 6262
        },
        {
          "length": 20,
          "start": 6294
        },
        {
          "length": 20,
          "start": 6931
        },
        {
          "length": 20,
          "start": 6963
        },
        {
          "length": 20,
          "start": 7176
        },
        {
          "length": 20,
          "start": 7208
        },
        {
          "length": 20,
          "start": 7536
        }
      ]
    }
  },
  "deployedLinkReferences": {
    "contracts/itMaps.sol": {
      "IterableMapping": [
        {
          "length": 20,
          "start": 275
        },
        {
          "length": 20,
          "start": 407
        },
        {
          "length": 20,
          "start": 537
        },
        {
          "length": 20,
          "start": 2103
        },
        {
          "length": 20,
          "start": 2135
        },
        {
          "length": 20,
          "start": 2348
        },
        {
          "length": 20,
          "start": 2380
        },
        {
          "length": 20,
          "start": 2917
        },
        {
          "length": 20,
          "start": 2949
        },
        {
          "length": 20,
          "start": 3970
        },
        {
          "length": 20,
          "start": 4138
        },
        {
          "length": 20,
          "start": 4410
        },
        {
          "length": 20,
          "start": 4442
        },
        {
          "length": 20,
          "start": 5079
        },
        {
          "length": 20,
          "start": 5111
        },
        {
          "length": 20,
          "start": 5324
        },
        {
          "length": 20,
          "start": 5356
        },
        {
          "length": 20,
          "start": 5684
        }
      ]
    }
  }
}