{
  "_format": "hh-sol-artifact-1",
  "contractName": "Token",
  "sourceName": "contracts/Token.sol",
  "abi": [
    {
      "inputs": [],
      "stateMutability": "nonpayable",
      "type": "constructor"
    },
    {
      "anonymous": false,
      "inputs": [
        {
          "indexed": true,
          "internalType": "address",
          "name": "from",
          "type": "address"
        },
        {
          "indexed": true,
          "internalType": "address",
          "name": "to",
          "type": "address"
        },
        {
          "indexed": false,
          "internalType": "uint256",
          "name": "amount",
          "type": "uint256"
        }
      ],
      "name": "Transfer",
      "type": "event"
    },
    {
      "inputs": [
        {
          "internalType": "address",
          "name": "account",
          "type": "address"
        }
      ],
      "name": "balanceOf",
      "outputs": [
        {
          "internalType": "uint256",
          "name": "",
          "type": "uint256"
        }
      ],
      "stateMutability": "view",
      "type": "function"
    },
    {
      "inputs": [],
      "name": "candidate",
      "outputs": [
        {
          "internalType": "address",
          "name": "",
          "type": "address"
        }
      ],
      "stateMutability": "view",
      "type": "function"
    },
    {
      "inputs": [],
      "name": "checkWithdrawBalance",
      "outputs": [
        {
          "internalType": "uint256",
          "name": "",
          "type": "uint256"
        }
      ],
      "stateMutability": "view",
      "type": "function"
    },
    {
      "inputs": [],
      "name": "decimals",
      "outputs": [
        {
          "internalType": "uint256",
          "name": "",
          "type": "uint256"
        }
      ],
      "stateMutability": "pure",
      "type": "function"
    },
    {
      "inputs": [
        {
          "internalType": "uint256",
          "name": "amount",
          "type": "uint256"
        },
        {
          "internalType": "address",
          "name": "_to",
          "type": "address"
        }
      ],
      "name": "mint",
      "outputs": [],
      "stateMutability": "nonpayable",
      "type": "function"
    },
    {
      "inputs": [],
      "name": "name",
      "outputs": [
        {
          "internalType": "string",
          "name": "",
          "type": "string"
        }
      ],
      "stateMutability": "view",
      "type": "function"
    },
    {
      "inputs": [
        {
          "internalType": "uint256",
          "name": "",
          "type": "uint256"
        }
      ],
      "name": "owners",
      "outputs": [
        {
          "internalType": "address",
          "name": "",
          "type": "address"
        }
      ],
      "stateMutability": "view",
      "type": "function"
    },
    {
      "inputs": [],
      "name": "ownersCount",
      "outputs": [
        {
          "internalType": "uint256",
          "name": "",
          "type": "uint256"
        }
      ],
      "stateMutability": "view",
      "type": "function"
    },
    {
      "inputs": [
        {
          "internalType": "address",
          "name": "_new",
          "type": "address"
        }
      ],
      "name": "setCandidate",
      "outputs": [],
      "stateMutability": "nonpayable",
      "type": "function"
    },
    {
      "inputs": [],
      "name": "symbol",
      "outputs": [
        {
          "internalType": "string",
          "name": "",
          "type": "string"
        }
      ],
      "stateMutability": "view",
      "type": "function"
    },
    {
      "inputs": [],
      "name": "totalSupply",
      "outputs": [
        {
          "internalType": "uint256",
          "name": "",
          "type": "uint256"
        }
      ],
      "stateMutability": "view",
      "type": "function"
    },
    {
      "inputs": [
        {
          "internalType": "address",
          "name": "to",
          "type": "address"
        },
        {
          "internalType": "uint256",
          "name": "amount",
          "type": "uint256"
        }
      ],
      "name": "transfer",
      "outputs": [],
      "stateMutability": "nonpayable",
      "type": "function"
    },
    {
      "inputs": [
        {
          "internalType": "address",
          "name": "sender",
          "type": "address"
        },
        {
          "internalType": "address",
          "name": "recepient",
          "type": "address"
        },
        {
          "internalType": "uint256",
          "name": "amount",
          "type": "uint256"
        }
      ],
      "name": "transferFrom",
      "outputs": [],
      "stateMutability": "nonpayable",
      "type": "function"
    },
    {
      "inputs": [
        {
          "internalType": "bool",
          "name": "_choose",
          "type": "bool"
        }
      ],
      "name": "vote",
      "outputs": [],
      "stateMutability": "nonpayable",
      "type": "function"
    },
    {
      "inputs": [],
      "name": "voting",
      "outputs": [
        {
          "internalType": "bool",
          "name": "",
          "type": "bool"
        }
      ],
      "stateMutability": "view",
      "type": "function"
    },
    {
      "inputs": [
        {
          "internalType": "uint256",
          "name": "_amount",
          "type": "uint256"
        }
      ],
      "name": "withdraw",
      "outputs": [],
      "stateMutability": "nonpayable",
      "type": "function"
    },
    {
      "stateMutability": "payable",
      "type": "receive"
    }
  ],
  "bytecode": "0x60806040526040518060400160405280601481526020017f466f75727468204976617369756b20546f6b656e00000000000000000000000081525060089080519060200190620000519291906200041e565b506040518060400160405280600481526020017f4956533300000000000000000000000000000000000000000000000000000000815250600990805190602001906200009f9291906200041e565b50348015620000ad57600080fd5b506001339080600181540180825580915050600190039060005260206000200160009091909190916101000a81548173ffffffffffffffffffffffffffffffffffffffff021916908373ffffffffffffffffffffffffffffffffffffffff16021790555060026000815480929190620001269062000507565b91905055506000600b60003373ffffffffffffffffffffffffffffffffffffffff1673ffffffffffffffffffffffffffffffffffffffff16815260200190815260200160002060006101000a81548160ff0219169083151502179055506200019e6801158e460913d0000033620001a460201b60201c565b62000824565b600080600090505b6002548110156200024c5760018181548110620001ce57620001cd62000554565b5b9060005260206000200160009054906101000a900473ffffffffffffffffffffffffffffffffffffffff1673ffffffffffffffffffffffffffffffffffffffff163373ffffffffffffffffffffffffffffffffffffffff16036200023657600191506200024c565b8080620002439062000507565b915050620001ac565b50600115158115151462000297576040517f08c379a00000000000000000000000000000000000000000000000000000000081526004016200028e90620005e4565b60405180910390fd5b600373__$d63b1d3c5d9b60c92d6baf33b2a688236c$__63bc2b405c90918486600373__$d63b1d3c5d9b60c92d6baf33b2a688236c$__63732a2ccf9091896040518363ffffffff1660e01b8152600401620002f592919062000652565b602060405180830381865af415801562000313573d6000803e3d6000fd5b505050506040513d601f19601f82011682018060405250810190620003399190620006b5565b620003459190620006e7565b6040518463ffffffff1660e01b8152600401620003659392919062000755565b60006040518083038186803b1580156200037e57600080fd5b505af415801562000393573d6000803e3d6000fd5b5050505082600080828254620003aa9190620006e7565b925050819055508173ffffffffffffffffffffffffffffffffffffffff16600073ffffffffffffffffffffffffffffffffffffffff167fddf252ad1be2c89b69c2b068fc378daa952ba7f163c4a11628f55a4df523b3ef85604051620004119190620007a3565b60405180910390a3505050565b8280546200042c90620007ef565b90600052602060002090601f0160209004810192826200045057600085556200049c565b82601f106200046b57805160ff19168380011785556200049c565b828001600101855582156200049c579182015b828111156200049b5782518255916020019190600101906200047e565b5b509050620004ab9190620004af565b5090565b5b80821115620004ca576000816000905550600101620004b0565b5090565b7f4e487b7100000000000000000000000000000000000000000000000000000000600052601160045260246000fd5b6000819050919050565b60006200051482620004fd565b91507fffffffffffffffffffffffffffffffffffffffffffffffffffffffffffffffff8203620005495762000548620004ce565b5b600182019050919050565b7f4e487b7100000000000000000000000000000000000000000000000000000000600052603260045260246000fd5b600082825260208201905092915050565b7f4e6f7420616e64206f776e657200000000000000000000000000000000000000600082015250565b6000620005cc600d8362000583565b9150620005d98262000594565b602082019050919050565b60006020820190508181036000830152620005ff81620005bd565b9050919050565b8082525050565b600073ffffffffffffffffffffffffffffffffffffffff82169050919050565b60006200063a826200060d565b9050919050565b6200064c816200062d565b82525050565b600060408201905062000669600083018562000606565b62000678602083018462000641565b9392505050565b600080fd5b6200068f81620004fd565b81146200069b57600080fd5b50565b600081519050620006af8162000684565b92915050565b600060208284031215620006ce57620006cd6200067f565b5b6000620006de848285016200069e565b91505092915050565b6000620006f482620004fd565b91506200070183620004fd565b9250827fffffffffffffffffffffffffffffffffffffffffffffffffffffffffffffffff03821115620007395762000738620004ce565b5b828201905092915050565b6200074f81620004fd565b82525050565b60006060820190506200076c600083018662000606565b6200077b602083018562000641565b6200078a604083018462000744565b949350505050565b6200079d81620004fd565b82525050565b6000602082019050620007ba600083018462000792565b92915050565b7f4e487b7100000000000000000000000000000000000000000000000000000000600052602260045260246000fd5b600060028204905060018216806200080857607f821691505b6020821081036200081e576200081d620007c0565b5b50919050565b61226c80620008346000396000f3fe6080604052600436106100f75760003560e01c80636c8381f81161008a5780639eda1ca0116100595780639eda1ca01461052a578063a9059cbb14610555578063b94885461461057e578063fce1ccca146105a957610307565b80636c8381f81461046e57806370a082311461049957806394bf804d146104d657806395d89b41146104ff57610307565b806323b872dd116100c657806323b872dd146103c85780632e1a7d4d146103f1578063313ce5671461041a5780634b9f5c981461044557610307565b8063025e7c271461030c57806306fdde031461034957806307880b7f1461037457806318160ddd1461039d57610307565b3661030757600034905060005b600373__$d63b1d3c5d9b60c92d6baf33b2a688236c$__63deb3d89690916040518263ffffffff1660e01b815260040161013e9190611894565b602060405180830381865af415801561015b573d6000803e3d6000fd5b505050506040513d601f19601f8201168201806040525081019061017f91906118ea565b811015610305576000600373__$d63b1d3c5d9b60c92d6baf33b2a688236c$__63d1aa9e7e9091846040518363ffffffff1660e01b81526004016101c4929190611926565b602060405180830381865af41580156101e1573d6000803e3d6000fd5b505050506040513d601f19601f8201168201806040525081019061020591906119ad565b9050600054600373__$d63b1d3c5d9b60c92d6baf33b2a688236c$__63732a2ccf9091846040518363ffffffff1660e01b81526004016102469291906119e9565b602060405180830381865af4158015610263573d6000803e3d6000fd5b505050506040513d601f19601f8201168201806040525081019061028791906118ea565b846102929190611a41565b61029c9190611aca565b600760008373ffffffffffffffffffffffffffffffffffffffff1673ffffffffffffffffffffffffffffffffffffffff16815260200190815260200160002060008282546102ea9190611afb565b925050819055505080806102fd90611b51565b915050610104565b005b600080fd5b34801561031857600080fd5b50610333600480360381019061032e9190611bae565b6105d4565b6040516103409190611bea565b60405180910390f35b34801561035557600080fd5b5061035e610613565b60405161036b9190611c9e565b60405180910390f35b34801561038057600080fd5b5061039b60048036038101906103969190611cd5565b6106a5565b005b3480156103a957600080fd5b506103b2610842565b6040516103bf9190611d11565b60405180910390f35b3480156103d457600080fd5b506103ef60048036038101906103ea9190611d2c565b61084b565b005b3480156103fd57600080fd5b5061041860048036038101906104139190611bae565b610aee565b005b34801561042657600080fd5b5061042f610d6a565b60405161043c9190611d11565b60405180910390f35b34801561045157600080fd5b5061046c60048036038101906104679190611db7565b610d73565b005b34801561047a57600080fd5b506104836111ee565b6040516104909190611bea565b60405180910390f35b3480156104a557600080fd5b506104c060048036038101906104bb9190611cd5565b611214565b6040516104cd9190611d11565b60405180910390f35b3480156104e257600080fd5b506104fd60048036038101906104f89190611de4565b61129a565b005b34801561050b57600080fd5b506105146114f9565b6040516105219190611c9e565b60405180910390f35b34801561053657600080fd5b5061053f61158b565b60405161054c9190611d11565b60405180910390f35b34801561056157600080fd5b5061057c60048036038101906105779190611e24565b6115d2565b005b34801561058a57600080fd5b50610593611874565b6040516105a09190611d11565b60405180910390f35b3480156105b557600080fd5b506105be61187a565b6040516105cb9190611e73565b60405180910390f35b600181815481106105e457600080fd5b906000526020600020016000915054906101000a900473ffffffffffffffffffffffffffffffffffffffff1681565b60606008805461062290611ebd565b80601f016020809104026020016040519081016040528092919081815260200182805461064e90611ebd565b801561069b5780601f106106705761010080835404028352916020019161069b565b820191906000526020600020905b81548152906001019060200180831161067e57829003601f168201915b5050505050905090565b600080600090505b60025481101561074457600181815481106106cb576106ca611eee565b5b9060005260206000200160009054906101000a900473ffffffffffffffffffffffffffffffffffffffff1673ffffffffffffffffffffffffffffffffffffffff163373ffffffffffffffffffffffffffffffffffffffff16036107315760019150610744565b808061073c90611b51565b9150506106ad565b50600115158115151461078c576040517f08c379a000000000000000000000000000000000000000000000000000000000815260040161078390611f69565b60405180910390fd5b60001515600a60149054906101000a900460ff161515146107e2576040517f08c379a00000000000000000000000000000000000000000000000000000000081526004016107d990611fd5565b60405180910390fd5b6001600a60146101000a81548160ff02191690831515021790555081600a60006101000a81548173ffffffffffffffffffffffffffffffffffffffff021916908373ffffffffffffffffffffffffffffffffffffffff1602179055505050565b60008054905090565b82818061085783611214565b1015610898576040517f08c379a000000000000000000000000000000000000000000000000000000000815260040161088f90612041565b60405180910390fd5b600373__$d63b1d3c5d9b60c92d6baf33b2a688236c$__63bc2b405c90918786600373__$d63b1d3c5d9b60c92d6baf33b2a688236c$__63732a2ccf90918c6040518363ffffffff1660e01b81526004016108f49291906119e9565b602060405180830381865af4158015610911573d6000803e3d6000fd5b505050506040513d601f19601f8201168201806040525081019061093591906118ea565b61093f9190612061565b6040518463ffffffff1660e01b815260040161095d93929190612095565b60006040518083038186803b15801561097557600080fd5b505af4158015610989573d6000803e3d6000fd5b50505050600373__$d63b1d3c5d9b60c92d6baf33b2a688236c$__63bc2b405c90918686600373__$d63b1d3c5d9b60c92d6baf33b2a688236c$__63732a2ccf90918b6040518363ffffffff1660e01b81526004016109e99291906119e9565b602060405180830381865af4158015610a06573d6000803e3d6000fd5b505050506040513d601f19601f82011682018060405250810190610a2a91906118ea565b610a349190611afb565b6040518463ffffffff1660e01b8152600401610a5293929190612095565b60006040518083038186803b158015610a6a57600080fd5b505af4158015610a7e573d6000803e3d6000fd5b505050508373ffffffffffffffffffffffffffffffffffffffff168573ffffffffffffffffffffffffffffffffffffffff167fddf252ad1be2c89b69c2b068fc378daa952ba7f163c4a11628f55a4df523b3ef85604051610adf9190611d11565b60405180910390a35050505050565b80600760003373ffffffffffffffffffffffffffffffffffffffff1673ffffffffffffffffffffffffffffffffffffffff168152602001908152602001600020541015610b70576040517f08c379a0000000000000000000000000000000000000000000000000000000008152600401610b679061213e565b60405180910390fd5b80600760003373ffffffffffffffffffffffffffffffffffffffff1673ffffffffffffffffffffffffffffffffffffffff1681526020019081526020016000206000828254610bbf9190612061565b92505081905550600373__$d63b1d3c5d9b60c92d6baf33b2a688236c$__63bc2b405c90913384600373__$d63b1d3c5d9b60c92d6baf33b2a688236c$__63732a2ccf9091336040518363ffffffff1660e01b8152600401610c229291906119e9565b602060405180830381865af4158015610c3f573d6000803e3d6000fd5b505050506040513d601f19601f82011682018060405250810190610c6391906118ea565b610c6d9190611afb565b6040518463ffffffff1660e01b8152600401610c8b93929190612095565b60006040518083038186803b158015610ca357600080fd5b505af4158015610cb7573d6000803e3d6000fd5b505050503373ffffffffffffffffffffffffffffffffffffffff166108fc829081150290604051600060405180830381858888f19350505050158015610d01573d6000803e3d6000fd5b503373ffffffffffffffffffffffffffffffffffffffff163073ffffffffffffffffffffffffffffffffffffffff167fddf252ad1be2c89b69c2b068fc378daa952ba7f163c4a11628f55a4df523b3ef83604051610d5f9190611d11565b60405180910390a350565b60006012905090565b600080600090505b600254811015610e125760018181548110610d9957610d98611eee565b5b9060005260206000200160009054906101000a900473ffffffffffffffffffffffffffffffffffffffff1673ffffffffffffffffffffffffffffffffffffffff163373ffffffffffffffffffffffffffffffffffffffff1603610dff5760019150610e12565b8080610e0a90611b51565b915050610d7b565b506001151581151514610e5a576040517f08c379a0000000000000000000000000000000000000000000000000000000008152600401610e5190611f69565b60405180910390fd5b60011515600a60149054906101000a900460ff16151514610eb0576040517f08c379a0000000000000000000000000000000000000000000000000000000008152600401610ea7906121aa565b60405180910390fd5b60001515600b60003373ffffffffffffffffffffffffffffffffffffffff1673ffffffffffffffffffffffffffffffffffffffff16815260200190815260200160002060009054906101000a900460ff16151514610f43576040517f08c379a0000000000000000000000000000000000000000000000000000000008152600401610f3a90612216565b60405180910390fd5b6001600b60003373ffffffffffffffffffffffffffffffffffffffff1673ffffffffffffffffffffffffffffffffffffffff16815260200190815260200160002060006101000a81548160ff0219169083151502179055506001151582151503610fc457600c6000815480929190610fba90611b51565b9190505550610fdd565b600d6000815480929190610fd790611b51565b91905055505b60028054610feb9190611aca565b600c5411806110085750600280546110039190611aca565b600d54115b156111ea576002805461101b9190611aca565b600c5411156110c2576001600a60009054906101000a900473ffffffffffffffffffffffffffffffffffffffff169080600181540180825580915050600190039060005260206000200160009091909190916101000a81548173ffffffffffffffffffffffffffffffffffffffff021916908373ffffffffffffffffffffffffffffffffffffffff160217905550600260008154809291906110bc90611b51565b91905055505b6000600a60006101000a81548173ffffffffffffffffffffffffffffffffffffffff021916908373ffffffffffffffffffffffffffffffffffffffff1602179055506000600a60146101000a81548160ff0219169083151502179055506000600c819055506000600d8190555060005b6001805490508110156111e8576000600b60006001848154811061115957611158611eee565b5b9060005260206000200160009054906101000a900473ffffffffffffffffffffffffffffffffffffffff1673ffffffffffffffffffffffffffffffffffffffff1673ffffffffffffffffffffffffffffffffffffffff16815260200190815260200160002060006101000a81548160ff02191690831515021790555080806111e090611b51565b915050611132565b505b5050565b600a60009054906101000a900473ffffffffffffffffffffffffffffffffffffffff1681565b6000600373__$d63b1d3c5d9b60c92d6baf33b2a688236c$__63732a2ccf9091846040518363ffffffff1660e01b81526004016112529291906119e9565b602060405180830381865af415801561126f573d6000803e3d6000fd5b505050506040513d601f19601f8201168201806040525081019061129391906118ea565b9050919050565b600080600090505b60025481101561133957600181815481106112c0576112bf611eee565b5b9060005260206000200160009054906101000a900473ffffffffffffffffffffffffffffffffffffffff1673ffffffffffffffffffffffffffffffffffffffff163373ffffffffffffffffffffffffffffffffffffffff16036113265760019150611339565b808061133190611b51565b9150506112a2565b506001151581151514611381576040517f08c379a000000000000000000000000000000000000000000000000000000000815260040161137890611f69565b60405180910390fd5b600373__$d63b1d3c5d9b60c92d6baf33b2a688236c$__63bc2b405c90918486600373__$d63b1d3c5d9b60c92d6baf33b2a688236c$__63732a2ccf9091896040518363ffffffff1660e01b81526004016113dd9291906119e9565b602060405180830381865af41580156113fa573d6000803e3d6000fd5b505050506040513d601f19601f8201168201806040525081019061141e91906118ea565b6114289190611afb565b6040518463ffffffff1660e01b815260040161144693929190612095565b60006040518083038186803b15801561145e57600080fd5b505af4158015611472573d6000803e3d6000fd5b50505050826000808282546114879190611afb565b925050819055508173ffffffffffffffffffffffffffffffffffffffff16600073ffffffffffffffffffffffffffffffffffffffff167fddf252ad1be2c89b69c2b068fc378daa952ba7f163c4a11628f55a4df523b3ef856040516114ec9190611d11565b60405180910390a3505050565b60606009805461150890611ebd565b80601f016020809104026020016040519081016040528092919081815260200182805461153490611ebd565b80156115815780601f1061155657610100808354040283529160200191611581565b820191906000526020600020905b81548152906001019060200180831161156457829003601f168201915b5050505050905090565b6000600760003373ffffffffffffffffffffffffffffffffffffffff1673ffffffffffffffffffffffffffffffffffffffff16815260200190815260200160002054905090565b3381806115de83611214565b101561161f576040517f08c379a000000000000000000000000000000000000000000000000000000000815260040161161690612041565b60405180910390fd5b600373__$d63b1d3c5d9b60c92d6baf33b2a688236c$__63bc2b405c90913386600373__$d63b1d3c5d9b60c92d6baf33b2a688236c$__63732a2ccf9091336040518363ffffffff1660e01b815260040161167b9291906119e9565b602060405180830381865af4158015611698573d6000803e3d6000fd5b505050506040513d601f19601f820116820180604052508101906116bc91906118ea565b6116c69190612061565b6040518463ffffffff1660e01b81526004016116e493929190612095565b60006040518083038186803b1580156116fc57600080fd5b505af4158015611710573d6000803e3d6000fd5b50505050600373__$d63b1d3c5d9b60c92d6baf33b2a688236c$__63bc2b405c90918686600373__$d63b1d3c5d9b60c92d6baf33b2a688236c$__63732a2ccf90918b6040518363ffffffff1660e01b81526004016117709291906119e9565b602060405180830381865af415801561178d573d6000803e3d6000fd5b505050506040513d601f19601f820116820180604052508101906117b191906118ea565b6117bb9190611afb565b6040518463ffffffff1660e01b81526004016117d993929190612095565b60006040518083038186803b1580156117f157600080fd5b505af4158015611805573d6000803e3d6000fd5b505050508373ffffffffffffffffffffffffffffffffffffffff163373ffffffffffffffffffffffffffffffffffffffff167fddf252ad1be2c89b69c2b068fc378daa952ba7f163c4a11628f55a4df523b3ef856040516118669190611d11565b60405180910390a350505050565b60025481565b600a60149054906101000a900460ff1681565b8082525050565b60006020820190506118a9600083018461188d565b92915050565b600080fd5b6000819050919050565b6118c7816118b4565b81146118d257600080fd5b50565b6000815190506118e4816118be565b92915050565b600060208284031215611900576118ff6118af565b5b600061190e848285016118d5565b91505092915050565b611920816118b4565b82525050565b600060408201905061193b600083018561188d565b6119486020830184611917565b9392505050565b600073ffffffffffffffffffffffffffffffffffffffff82169050919050565b600061197a8261194f565b9050919050565b61198a8161196f565b811461199557600080fd5b50565b6000815190506119a781611981565b92915050565b6000602082840312156119c3576119c26118af565b5b60006119d184828501611998565b91505092915050565b6119e38161196f565b82525050565b60006040820190506119fe600083018561188d565b611a0b60208301846119da565b9392505050565b7f4e487b7100000000000000000000000000000000000000000000000000000000600052601160045260246000fd5b6000611a4c826118b4565b9150611a57836118b4565b9250817fffffffffffffffffffffffffffffffffffffffffffffffffffffffffffffffff0483118215151615611a9057611a8f611a12565b5b828202905092915050565b7f4e487b7100000000000000000000000000000000000000000000000000000000600052601260045260246000fd5b6000611ad5826118b4565b9150611ae0836118b4565b925082611af057611aef611a9b565b5b828204905092915050565b6000611b06826118b4565b9150611b11836118b4565b9250827fffffffffffffffffffffffffffffffffffffffffffffffffffffffffffffffff03821115611b4657611b45611a12565b5b828201905092915050565b6000611b5c826118b4565b91507fffffffffffffffffffffffffffffffffffffffffffffffffffffffffffffffff8203611b8e57611b8d611a12565b5b600182019050919050565b600081359050611ba8816118be565b92915050565b600060208284031215611bc457611bc36118af565b5b6000611bd284828501611b99565b91505092915050565b611be48161196f565b82525050565b6000602082019050611bff6000830184611bdb565b92915050565b600081519050919050565b600082825260208201905092915050565b60005b83811015611c3f578082015181840152602081019050611c24565b83811115611c4e576000848401525b50505050565b6000601f19601f8301169050919050565b6000611c7082611c05565b611c7a8185611c10565b9350611c8a818560208601611c21565b611c9381611c54565b840191505092915050565b60006020820190508181036000830152611cb88184611c65565b905092915050565b600081359050611ccf81611981565b92915050565b600060208284031215611ceb57611cea6118af565b5b6000611cf984828501611cc0565b91505092915050565b611d0b816118b4565b82525050565b6000602082019050611d266000830184611d02565b92915050565b600080600060608486031215611d4557611d446118af565b5b6000611d5386828701611cc0565b9350506020611d6486828701611cc0565b9250506040611d7586828701611b99565b9150509250925092565b60008115159050919050565b611d9481611d7f565b8114611d9f57600080fd5b50565b600081359050611db181611d8b565b92915050565b600060208284031215611dcd57611dcc6118af565b5b6000611ddb84828501611da2565b91505092915050565b60008060408385031215611dfb57611dfa6118af565b5b6000611e0985828601611b99565b9250506020611e1a85828601611cc0565b9150509250929050565b60008060408385031215611e3b57611e3a6118af565b5b6000611e4985828601611cc0565b9250506020611e5a85828601611b99565b9150509250929050565b611e6d81611d7f565b82525050565b6000602082019050611e886000830184611e64565b92915050565b7f4e487b7100000000000000000000000000000000000000000000000000000000600052602260045260246000fd5b60006002820490506001821680611ed557607f821691505b602082108103611ee857611ee7611e8e565b5b50919050565b7f4e487b7100000000000000000000000000000000000000000000000000000000600052603260045260246000fd5b7f4e6f7420616e64206f776e657200000000000000000000000000000000000000600082015250565b6000611f53600d83611c10565b9150611f5e82611f1d565b602082019050919050565b60006020820190508181036000830152611f8281611f46565b9050919050565b7f54686520766f74696e6720697320737461727465640000000000000000000000600082015250565b6000611fbf601583611c10565b9150611fca82611f89565b602082019050919050565b60006020820190508181036000830152611fee81611fb2565b9050919050565b7f4e6f7420656e6f75676820746f6b656e73000000000000000000000000000000600082015250565b600061202b601183611c10565b915061203682611ff5565b602082019050919050565b6000602082019050818103600083015261205a8161201e565b9050919050565b600061206c826118b4565b9150612077836118b4565b92508282101561208a57612089611a12565b5b828203905092915050565b60006060820190506120aa600083018661188d565b6120b760208301856119da565b6120c46040830184611917565b949350505050565b7f4e6f7420656e6f75676820746f6b656e73206f6e20776974686472617720626160008201527f6c616e6365000000000000000000000000000000000000000000000000000000602082015250565b6000612128602583611c10565b9150612133826120cc565b604082019050919050565b600060208201905081810360008301526121578161211b565b9050919050565b7f566f74696e672069736e27742073746172746564000000000000000000000000600082015250565b6000612194601483611c10565b915061219f8261215e565b602082019050919050565b600060208201905081810360008301526121c381612187565b9050919050565b7f54686973206f776e657220766f74656400000000000000000000000000000000600082015250565b6000612200601083611c10565b915061220b826121ca565b602082019050919050565b6000602082019050818103600083015261222f816121f3565b905091905056fea264697066735822122024266e05ebd31cae37327cf3e208239f7810b68df03a9e49068a336cac75850d64736f6c634300080d0033",
  "linkReferences": {
    "contracts/itMaps.sol": {
      "IterableMapping": [
        {
          "length": 20,
          "start": 667
        },
        {
          "length": 20,
          "start": 699
        },
        {
          "length": 20,
          "start": 2364
        },
        {
          "length": 20,
          "start": 2496
        },
        {
          "length": 20,
          "start": 2626
        },
        {
          "length": 20,
          "start": 4304
        },
        {
          "length": 20,
          "start": 4336
        },
        {
          "length": 20,
          "start": 4549
        },
        {
          "length": 20,
          "start": 4581
        },
        {
          "length": 20,
          "start": 5118
        },
        {
          "length": 20,
          "start": 5150
        },
        {
          "length": 20,
          "start": 6734
        },
        {
          "length": 20,
          "start": 7097
        },
        {
          "length": 20,
          "start": 7129
        },
        {
          "length": 20,
          "start": 7767
        },
        {
          "length": 20,
          "start": 7799
        },
        {
          "length": 20,
          "start": 8012
        },
        {
          "length": 20,
          "start": 8044
        }
      ]
    }
  },
  "deployedLinkReferences": {
    "contracts/itMaps.sol": {
      "IterableMapping": [
        {
          "length": 20,
          "start": 264
        },
        {
          "length": 20,
          "start": 396
        },
        {
          "length": 20,
          "start": 526
        },
        {
          "length": 20,
          "start": 2204
        },
        {
          "length": 20,
          "start": 2236
        },
        {
          "length": 20,
          "start": 2449
        },
        {
          "length": 20,
          "start": 2481
        },
        {
          "length": 20,
          "start": 3018
        },
        {
          "length": 20,
          "start": 3050
        },
        {
          "length": 20,
          "start": 4634
        },
        {
          "length": 20,
          "start": 4997
        },
        {
          "length": 20,
          "start": 5029
        },
        {
          "length": 20,
          "start": 5667
        },
        {
          "length": 20,
          "start": 5699
        },
        {
          "length": 20,
          "start": 5912
        },
        {
          "length": 20,
          "start": 5944
        }
      ]
    }
  }
}